:020000040800F2
:10000000A8910020A1010008B16C0008416300081C
:10001000AD6C000885030008ADC3000800000000B7
:10002000000000000000000000000000DD7000087B
:10003000C107000800000000D97000086D710008B9
:10004000BB010008BB010008BB010008BB010008A0
:10005000BB010008BB010008C5070008BB01000880
:10006000BB010008D1070008DD070008BB0100083C
:1000700091050008A1050008BB010008B1050008B2
:10008000BB010008BB010008BB010008BB01000860
:100090008903000899030008BB010008E90700086C
:1000A000BB010008BB010008BB010008BB01000840
:1000B000BB010008BB01000849720008BB01000831
:1000C000BB010008BB010008BB010008BB01000820
:1000D000BB0100085D870008BB0100086D870008B0
:1000E000BB010008BB010008BB010008BB01000800
:1000F000BB010008BB010008BB010008BB010008F0
:10010000BB010008BB01000859720008BB010008D0
:10011000BB010008BB010008BB010008BB010008CF
:10012000BB010008C1050008D1050008E105000871
:10013000BB010008BB010008BB010008BB010008AF
:10014000A9030008B9030008BB010008256D0008D9
:10015000F105000801060008110600087D87000867
:10016000BB010008BB010008BB010008BB0100087F
:10017000BB010008BB010008BB0100080000000033
:10018000BB010008BB010008DFF810D000F0E8F860
:1001900000F06EF800480047A9E70008A891002089
:1001A0000648804706480047FEE7FEE7FEE7FEE711
:1001B000FEE7FEE7FEE7FEE7FEE7FEE73572000832
:1001C000890100082DE9F05F0546002092469B4614
:1001D00088460646814640241BE02846414647465D
:1001E000224600F0ADF853465A46C01A914110D34A
:1001F00011461846224600F094F82D1A67EB0108C4
:100200004F4622460120002100F08BF817EB000931
:100210004E41201EA4F10104DFDC484631462A4647
:100220004346BDE8F09F40EA01039B0703D009E085
:1002300008C9121F08C0042AFAD203E011F8013BD2
:1002400000F8013B521EF9D27047D2B201E000F82B
:10025000012B491EFBD270470022F6E710B513466A
:100260000A4604461946FFF7F0FF204610BD00007D
:1002700070B5054C054D04E02046016808448047F0
:10028000241DAC42F8D170BD9CEB0008A8EB00081F
:1002900030B5041E71F1000404DB4FF0004440420D
:1002A00064EB0101141E73F1000405DB1C464FF0E2
:1002B0000043524263EB0403801A994101D30120A9
:1002C00030BD002030BD30B5041E71F1000404DBE8
:1002D0004FF00044404264EB0101141E73F100042E
:1002E00005DB1C464FF00043524263EB0403101A37
:1002F0008B4101D3012030BD002030BD00F0004211
:1003000030F000400AD0C10D01F56071C0F3160055
:1003100042EA0151C20840071143704700200146DC
:100320007047202A04DB203A00FA02F100207047CF
:100330009140C2F1200320FA03F319439040704723
:10034000202A04DB203A21FA02F00021704721FA2A
:1003500002F3D040C2F12002914008431946704791
:10036000064C074D06E0E06840F0010394E8070002
:1003700098471034AC42F6D3FFF70AFF7CEB000835
:100380009CEB0008FFE7FEE780B543F22060C2F275
:10039000000000F027FD80BD80B543F22060C2F26E
:1003A000000000F01FFD80BD80B543F24860C2F23E
:1003B000000000F017FD80BD80B543F24860C2F236
:1003C000000000F00FFD80BD80B586B0059004915F
:1003D0000598006846F20041C4F20001884216D137
:1003E000FFE7059840F21811C2F200010860049876
:1003F0008862059800210391039A039B0CF0C4F9CD
:1004000005980C21039A039B0CF0BEF919E005989E
:10041000006846F60001C4F20001884210D1FFE7EF
:10042000059840F25C11C2F20001086004988862ED
:100430000598702100220292029B0CF0A5F9FFE7BB
:10044000FFE7059801F02EF9059902220190084670
:10045000114600F005FA0599102200900846114651
:1004600000F0FEF906B080BD80B58EB09C468E4689
:100470000D90ADF832100B92ADF82A30BDF8320075
:1004800004900020059006900790BDF82A0008907F
:100490000D980B9A04A903ABCDF808C0CDF804E081
:1004A00000F008FA0EB080BD84B0134684468DF883
:1004B0000F000291ADF806209DF80F000146232899
:1004C00000911DD80099DFE801F012131415161BD6
:1004D0001B1B1B1B1B1B1B1B1B1B1B1B1B1B1B1B6C
:1004E0001B1B1B1B1B1B1B1B1B1B1718191A08E0B4
:1004F00007E006E005E004E003E002E001E000E0E0
:10050000FFE7002004B070470020704780B584B03A
:1005100043F24430C2F2000041F28041C2F20001D5
:1005200000220390029208F02DFD40F68041C2F2B5
:100530000001039A0190104608F004FD0299009012
:10054000084604B080BD000080B586B005900491D7
:10055000059943F24430C2F20000039008F0F2FC27
:1005600003990290084608F08FFC0021019008468C
:1005700006B080BD83B01346029001918DF8032030
:1005800000208DF802009DF9020003B070470000C2
:1005900080B543F6B000C2F2000001F081F980BDE1
:1005A00080B543F27060C2F2000001F079F980BDBD
:1005B00080B543F2D060C2F2000001F071F980BD55
:1005C00080B543F61010C2F2000001F069F980BD59
:1005D00080B543F23070C2F2000001F061F980BDD5
:1005E00080B543F29070C2F2000001F059F980BD6D
:1005F00080B543F2F070C2F2000001F051F980BD05
:1006000080B543F67010C2F2000001F049F980BDD8
:1006100080B543F65000C2F2000001F041F980BD00
:1006200082B001900198007810384AF6AB21CAF6E2
:10063000AA21A0FB01010909009100994EF6303270
:10064000C0F60002515C019AD1650099042907D3D4
:10065000FFE701980168042262F30901816506E061
:100660000198016840F2FF3291438165FFE70198EC
:10067000806D02B07047000086B0059000208DF8B4
:1006800013000598806A039005988069002823D19B
:10069000FFE70398032802901CD80299DFE801F0D5
:1006A000020E0219059890F82F00C007002804D008
:1006B000FFE701208DF81300FFE70CE00598C06A02
:1006C000B0F1C07F04D1FFE701208DF81300FFE7F0
:1006D00001E000E0FFE747E005988069B0F5005FC2
:1006E00026D1FFE70398032801901FD80199DFE87E
:1006F00001F00206021201208DF8130017E00598A0
:1007000090F82F00C007002804D0FFE701208DF8E3
:100710001300FFE70BE00598C06AB0F1C07F04D179
:10072000FFE701208DF81300FFE700E0FFE71AE084
:1007300003980328009004D3FFE70098032804D00F
:100740000FE001208DF813000CE0059890F82F00C1
:10075000C007002804D0FFE701208DF81300FFE751
:1007600000E0FFE7FFE7FFE79DF8130006B07047E2
:1007700084B003900291019200930398006801688D
:1007800021F480210160009803990968486003986A
:100790008068402809D1FFE70198039909688860BB
:1007A000029803990968C86008E0029803990968EB
:1007B0008860019803990968C860FFE704B0704732
:1007C0007047000080B5012001F054FB80BD00009F
:1007D00080B5082001F04EFB80BD000080B51020E0
:1007E00001F048FB80BD000080B5202001F042FBF5
:1007F00080BD000072B6FFE7FEE7000080B584B060
:1008000047F61020C1F6FF700068039047F61420E9
:10081000C1F6FF700068029047F61820C1F6FF701D
:1008200000680190019803990844039003980028F8
:1008300013D0FFE7039840F2DC01C2F200018A1CEA
:100840000823009111461A4605F07CFD0298009994
:100850001231042205F076FDFFE704B080BD0000F0
:1008600084B002900191029890F820008DF8030066
:100870009DF80300012805D0FFE79DF8030002283A
:100880000AD1FFE70198029909684A691043486153
:1008900000208DF80F0008E00298416A41F48021A1
:1008A000416201208DF80F00FFE79DF80F0004B0B2
:1008B0007047000088B00690059104920393069853
:1008C00090F820008DF80700069800688068009076
:1008D00005988068002801D1FFE700E0FFE79DF858
:1008E0000700012806D0FFE79DF80700022840F026
:1008F0008280FFE79DF80300400700280CD4FFE743
:100900009DF803000007002806D4FFE79DF80300C8
:10091000C006002866D5FFE70098C0F3016002908A
:100920000298012101FA00F0039908600598806897
:1009300000280DD1FFE705980168C06840EA4150E2
:1009400006990968029A01EB0211C1F880010EE0D4
:10095000059841688268C06842EAC1010843069967
:100960000968029A01EB0211C1F88001FFE70598BE
:10097000006906990968029A01EB0211C1F8840125
:100980000598007D01280CD1FFE7069800680299C0
:1009900000EB0110D0F8841141F48071C0F884118B
:1009A000FFE70498406806990968029A01EB021172
:1009B000C1F88C010498006806990968029A01EB55
:1009C0000211C1F8880106980068029900EB011035
:1009D000D0F8801141F00101C0F8801100208DF89D
:1009E0001F0011E00698416A41F4001141620120A4
:1009F0008DF81F0008E00698416A41F480214162A9
:100A000001208DF81F00FFE79DF81F0008B0704718
:100A100086B004900391049890F820008DF80300AC
:100A20009DF80300012806D0FFE79DF80300022887
:100A300040F0B880FFE746F20040C4F200000190A9
:100A40000198D0F8001241F00101C0F8001201989D
:100A5000D0F8001221F47C51C0F800120398406ACB
:100A60000199D1F8002242EA0020C1F8000203985F
:100A7000406900F01F00012101FA00F00290029885
:100A80000199D1F81C2222EA0000C1F81C02039847
:100A9000C06900281FD1FFE702980199D1F80C2204
:100AA00022EA0000C1F80C0203988188C2684069FC
:100AB00041EA0241019A02EBC000C0F840120398DB
:100AC00001888268406941EA0241019A02EBC00054
:100AD000C0F84412FFE70398C06901281ED1FFE760
:100AE00002980199D1F80C221043C1F80C02039826
:100AF00081880268406941EA0241019A02EBC00024
:100B0000C0F84012039881898268406941EA024135
:100B1000019A02EBC000C0F84412FFE70398806915
:100B2000002809D1FFE702980199D1F8042222EAAE
:100B30000000C1F8040207E002980199D1F80422EC
:100B40001043C1F80402FFE703980069002809D1A7
:100B5000FFE702980199D1F8142222EA0000C1F8B7
:100B6000140207E002980199D1F814221043C1F849
:100B70001402FFE70398006A012808D1FFE70298F2
:100B80000199D1F81C221043C1F81C02FFE701981B
:100B9000D0F8001221F00101C0F8001200208DF8F9
:100BA000170008E00498416A41F480214162012065
:100BB0008DF81700FFE79DF8170006B0704700009A
:100BC00081B0009001B0704786B00490039102920A
:100BD0000193049890F820008DF803009DF803001D
:100BE000012806D0FFE79DF80300022840F0ED80C1
:100BF000FFE70398002811D1FFE704980068C06858
:100C00008007002809D1FFE70498416A41F40011E8
:100C1000416201208DF81700E0E010E004980068C0
:100C200000698007002809D1FFE70498416A41F470
:100C30000011416201208DF81700CFE0FFE7049812
:100C40000068039900EB0110D0F8B00100F0040037
:100C5000029988600298806800280BD1FFE7049809
:100C60000068039900EB0110D0F8B001400D029923
:100C700008600AE004980068039900EB0110D0F8BE
:100C8000B001C00802994860FFE704980068039922
:100C900000EB0110D0F8B00100F002000299C8602A
:100CA00004980068039900EB0110D0F8B40100F03B
:100CB0000F00082804D3FFE70298082101610BE028
:100CC00004980068039900EB0110D0F8B40100F01B
:100CD0000F0002990861FFE704980068039900EB90
:100CE0000110D0F8B40180B2000A0299886104981A
:100CF0000068039900EB0110D0F8B401000C0299D0
:100D0000486104980068039900EB0110D0F8B8011D
:100D10000199087004980068039900EB0110D0F85D
:100D2000B801000A0199487004980068039900EB23
:100D30000110D0F8B801000C01998870049800687F
:100D4000039900EB0110D0F8B801000E0199C870AA
:100D500004980068039900EB0110D0F8BC010199D8
:100D6000087104980068039900EB0110D0F8BC01E9
:100D7000000A0199487104980068039900EB01107A
:100D8000D0F8BC01000C019988710498006803999F
:100D900000EB0110D0F8BC01000E0199C871039856
:100DA000002807D1FFE704980068C16841F02001DE
:100DB000C16006E004980068016941F0200101610A
:100DC000FFE700208DF8170008E00498416A41F41D
:100DD0008021416201208DF81700FFE79DF8170080
:100DE00006B0704780B58AB0099000200890099835
:100DF0000068406907900998006840680690099863
:100E000000688068059009980068C0680490099897
:100E100000680069039009980068806902909DF855
:100E20001C00C007002800F09780FFE79DF8140021
:100E3000C00700282BD0FFE70998006801218160D6
:100E40009DF814008007002804D5FFE7099800F0FA
:100E500073FC1BE09DF814004007002805D5FFE750
:100E6000089840F4006008900FE09DF81400000717
:100E7000002805D5FFE7089840F48050089003E06B
:100E8000099800F055FCFFE7FFE7FFE7FFE79DF853
:100E90001500C00700282CD0FFE7099800684FF420
:100EA000807181609DF815008007002804D5FFE758
:100EB000099800F049FC1BE09DF815004007002848
:100EC00005D5FFE7089840F4005008900FE09DF822
:100ED00015000007002805D5FFE7089840F480407A
:100EE000089003E0099800F02BFCFFE7FFE7FFE71D
:100EF000FFE79DF81600C00700282CD0FFE70998EF
:100F000000684FF4803181609DF81600800700284A
:100F100004D5FFE7099800F01FFC1BE09DF81600C0
:100F20004007002805D5FFE7089840F400400890E6
:100F30000FE09DF816000007002805D5FFE7089888
:100F400040F48030089003E0099800F001FCFFE7CE
:100F5000FFE7FFE7FFE7FFE79DF81C000007002819
:100F600010D5FFE79DF81000C006002809D5FFE75F
:100F7000089840F400700890099800681021C1603A
:100F8000FFE7FFE79DF81C00400700280FD5FFE7AB
:100F90009DF810000007002808D5FFE709980068B1
:100FA0000821C160099800F0E9FAFFE7FFE79DF822
:100FB0001C00800700280CD5FFE709980068C0686E
:100FC0008007002804D0FFE7099800F0DBFAFFE76C
:100FD000FFE79DF81C004006002810D5FFE79DF8AC
:100FE0000C00C006002809D5FFE7089840F480608F
:100FF00008900998006810210161FFE7FFE79DF85C
:101000001C00800600280FD5FFE79DF80C000007A4
:10101000002808D5FFE709980068082101610998B0
:1010200000F0F4FAFFE7FFE79DF81C00C006002877
:101030000CD5FFE70998006800698007002804D0F4
:10104000FFE7099800F0E6FAFFE7FFE79DF81E00CA
:10105000800700280FD5FFE79DF81800C00600287C
:1010600008D5FFE70998006810214160099800F051
:1010700015FBFFE7FFE79DF81E00C00700280FD013
:10108000FFE79DF818000007002808D5FFE709983A
:10109000006808214160099800F062FBFFE7FFE764
:1010A0009DF81D000006002840F18F80FFE79DF8A5
:1010B00018004007002840F18380FFE79DF81D00DD
:1010C000C00700280BD0FFE79DF80800C0070028E4
:1010D00005D0FFE7089840F001000890FFE79DF871
:1010E0001D00800700280BD5FFE79DF8080080074A
:1010F000002805D5FFE7089840F002000890FFE7B8
:101100009DF81D00400700280BD5FFE79DF808005B
:101110004007002805D5FFE7089840F00400089034
:10112000FFE79DF81D000007002848D5FFE79DF860
:10113000080010F0700F42D0FFE7029800F0700036
:1011400001461028019114D0FFE70198202815D0FE
:10115000FFE70198302816D0FFE70198402817D004
:10116000FFE70198502818D0FFE70198602819D0B0
:101170001DE0089840F00800089019E0089840F039
:101180001000089014E0089840F0200008900FE04C
:10119000089840F0400008900AE0089840F080006D
:1011A000089005E0089840F48070089000E0FFE7A0
:1011B00009980068816921F070018161FFE7FFE70C
:1011C0000998006804214160FFE70898002809D0C9
:1011D000FFE7089809994A6A104348620998FFF79F
:1011E000EFFCFFE70AB080BD80B584B002900298A2
:1011F000002804D1FFE701208DF80F00E2E00298FB
:1012000090F82000002804D1FFE7029800F0DEF8F3
:10121000FFE702980068016841F00101016001F0F8
:1012200043F80190FFE7029800684068C007002873
:1012300015D1FFE701F038F80199401A0B280DD3BA
:10124000FFE70298416A41F40031416202980521AA
:1012500080F8201001208DF80F00B3E0E3E702983A
:101260000068016821F00201016001F01DF80190A1
:10127000FFE70298006840688007002815D5FFE75F
:1012800001F012F80199401A0B280DD3FFE70298DC
:10129000416A41F4003141620298052180F8201032
:1012A00001208DF80F008DE0E3E70298007E012811
:1012B00007D1FFE702980068016841F080010160F2
:1012C00006E002980068016821F080010160FFE7F4
:1012D0000298407E012807D1FFE702980068016864
:1012E00041F04001016006E002980068016821F0C9
:1012F00040010160FFE70298807E012807D1FFE7E7
:1013000002980068016841F02001016006E002983F
:101310000068016821F020010160FFE70298C07EAB
:10132000012807D1FFE702980068016821F0100149
:10133000016006E002980068016841F01001016058
:10134000FFE70298007F012807D1FFE702980068B5
:10135000016841F00801016006E002980068016838
:1013600021F008010160FFE70298407F012807D1C2
:10137000FFE702980068016841F00401016006E09F
:1013800002980068016821F004010160FFE70298FB
:10139000016842688368D0F80CC043EA0C03D0F8B7
:1013A00010C043EA0C0340691843013A1043C86176
:1013B0000298002141620298012280F820208DF8D5
:1013C0000F10FFE79DF80F0004B080BD80B592B00C
:1013D0001190002010900F900E900D900C9011988D
:1013E000006846F20041C4F20001884253D1FFE791
:1013F00040F28810C2F2000001680131016000680B
:10140000012812D1FFE7FFE700200B9043F64000D0
:10141000C4F20200016841F000710160006800F050
:1014200000700B900B98FFE7FFE7FFE700200A90A2
:1014300043F63000C4F20200016841F00801016087
:10144000006800F008000A900A98FFE703200C905B
:1014500002210D9100210E910F900920109040F66D
:101460000040C4F202000CAA0691114600F020FDD3
:10147000142005900699069A01F0DAF9059801F012
:10148000CBF9152004900699069A01F0D1F9049839
:1014900001F0C2F96FE01198006846F60001C4F24D
:1014A0000001884266D1FFE7FFE70020099043F67C
:1014B0004000C4F20200016841F0806101600068F0
:1014C00000F0806009900998FFE740F28810C2F2AE
:1014D00000000168013101600068012812D1FFE7B6
:1014E000FFE70020089043F64000C4F202000168C4
:1014F00041F000710160006800F0007008900898E9
:10150000FFE7FFE7FFE70020079043F63000C4F253
:101510000200016841F002010160006800F0020071
:1015200007900798FFE760200C9002200D900020A4
:101530000E9003210F910921109140F20041C4F255
:1015400002010CAA03900846114600F0B1FC4020AD
:1015500002900399039A01F06BF9029801F05CF98B
:10156000412001900399039A01F062F9019801F07A
:1015700053F9FFE7FFE712B080BD000081B0009093
:1015800001B0704780B588B007900798006846F2B0
:101590000041C4F20001884216D1FFE7079840F2EB
:1015A0001811C2F200010A1D01F120034FF0000CD6
:1015B000069161460592FFF707FB06998A6A059B2B
:1015C0000490184690471FE00798006846F600010F
:1015D000C4F20001884216D1FFE7079840F25C117F
:1015E000C2F200010A1D01F120034FF0000C03912B
:1015F00061460292FFF7E8FA03998A6A029B01901A
:1016000018469047FFE7FFE708B080BD81B0009023
:1016100001B0704780B588B007900798006846F21F
:101620000041C4F20001884216D1FFE7079840F25A
:101630001811C2F200010A1D01F120034FF0010C44
:10164000069161460592FFF7BFFA06998A6A059BE3
:101650000490184690471FE00798006846F600017E
:10166000C4F20001884216D1FFE7079840F25C11EE
:10167000C2F200010A1D01F120034FF0010C039199
:1016800061460292FFF7A0FA03998A6A029B0190D1
:1016900018469047FFE7FFE708B080BD81B0009093
:1016A00001B0704780B584B00290029890F8200095
:1016B000012830D1FFE70298022180F8201002981B
:1016C0000068016821F00101016000F0EDFD01906A
:1016D000FFE7029800684068C007002815D0FFE7C0
:1016E00000F0E2FD0199401A0B280DD3FFE70298A4
:1016F000416A41F4003141620298052180F82010CE
:1017000001208DF80F000FE0E3E70298002141620D
:101710008DF80F1008E00298416A41F400214162FF
:1017200001208DF80F00FFE79DF80F0004B080BD89
:1017300081B0009001B0704781B0009001B0704757
:1017400081B0009001B0704781B0009001B0704747
:1017500081B0009001B0704781B0009001B0704737
:1017600081B0009001B0704780B584B002900298BB
:10177000806D019000F098FD0090029890F835007F
:1017800002280DD0FFE7029880214165FFE702980B
:10179000002180F83410FFE701208DF80F0059E098
:1017A00002980068016821F0160101600298006843
:1017B000416921F0800141610298006C002805D147
:1017C000FFE70298806C002807D0FFE702980068C6
:1017D000016821F008010160FFE7029800680168D4
:1017E00021F001010160FFE7029800680068C0076E
:1017F000002819D0FFE700F057FD0099401A06288D
:1018000011D3FFE70298202141650298032180F857
:101810003510FFE70298002180F83410FFE703201D
:101820008DF80F0016E0DFE70298C06D3F2101FA46
:1018300000F0019988600298012180F83510FFE7D7
:101840000298002180F83410FFE7FFE700208DF8B0
:101850000F00FFE79DF80F0004B080BD82B000903C
:10186000009890F83500022807D0FFE70098802103
:10187000416501208DF807000EE00098052180F8F1
:10188000351000980068016821F001010160FFE750
:1018900000208DF80700FFE79DF8070002B07047B1
:1018A00080B586B005900020039040F22400C2F27B
:1018B0000000006848F2B511C1F64E31A0FB0101ED
:1018C000890A02910599896D01910199096804912C
:1018D0000499059AD26DD140090700291BD5FFE76D
:1018E0000598006800684007002813D5FFE70598B1
:1018F0000068016821F0040101600598C06D0821AD
:1019000001FA00F0019988600598416D41F00101EC
:101910004165FFE7FFE704980599C96DC840C00716
:10192000002815D0FFE705980068406900060028E8
:101930000DD5FFE70598C06D012101FA00F001996E
:1019400088600598416D41F002014165FFE7FFE7BE
:1019500004980599C96DC8404007002815D5FFE7D0
:10196000059800680068800700280DD5FFE70598F6
:10197000C06D042101FA00F0019988600598416D5D
:1019800041F004014165FFE7FFE704980599C96D3F
:10199000C840C00600284BD5FFE7059800680068DE
:1019A0000007002843D5FFE70598C06D102101FA14
:1019B00000F00199886005980068006840030028DD
:1019C0001CD5FFE7059800680068000300280AD4CA
:1019D000FFE70598006C002804D0FFE70598016C2C
:1019E0008847FFE709E00598806C002804D0FFE7EE
:1019F0000598816C8847FFE7FFE717E005980068C6
:101A00000068C005002807D4FFE705980068016852
:101A100021F008010160FFE70598006C002804D060
:101A2000FFE70598016C8847FFE7FFE7FFE7FFE75F
:101A300004980599C96DC8408006002840F195803A
:101A4000FFE7059800680068C006002840F18C8018
:101A5000FFE70598C06D202101FA00F00199886028
:101A6000059890F83500052838D1FFE705980068FB
:101A7000016821F01601016005980068416921F0B4
:101A8000800141610598006C002805D1FFE70598A9
:101A9000806C002807D0FFE705980068016821F0F6
:101AA00008010160FFE70598C06D3F2101FA00F0D1
:101AB000019988600598012180F83510FFE70598A5
:101AC000002180F83410FFE70598006D002804D04D
:101AD000FFE70598016D8847FFE781E005980068FA
:101AE0000068400300281CD5FFE7059800680068DF
:101AF000000300280AD4FFE70598406C002804D0B2
:101B0000FFE70598416C8847FFE709E00598C06B3F
:101B1000002804D0FFE70598C16B8847FFE7FFE77F
:101B200021E0059800680068C005002811D4FFE78F
:101B300005980068016821F01001016005980121F5
:101B400080F83510FFE70598002180F83410FFE792
:101B5000FFE70598C06B002804D0FFE70598C16B2C
:101B60008847FFE7FFE7FFE7FFE70598406D00289C
:101B700036D0FFE70598406DC007002826D0FFE764
:101B80000598052180F8351005980068016821F056
:101B900001010160FFE70398013003900299884238
:101BA00001D9FFE707E0FFE7059800680068C00774
:101BB0000028F0D1FFE70598012180F83510FFE7F4
:101BC0000598002180F83410FFE7FFE70598C06C06
:101BD000002804D0FFE70598C16C8847FFE7FFE7BE
:101BE00006B080BD80B586B004900020039000F060
:101BF0005BFB02900498002804D1FFE701208DF8D8
:101C00001700A7E00498406A002801D0FFE7FFE72B
:101C10000498022180F83510FFE70498002180F82D
:101C20003410FFE704980068016821F001010160A9
:101C3000FFE7049800680068C007002812D0FFE79B
:101C400000F032FB0299401A06280AD3FFE70498F5
:101C5000202141650498032180F835108DF8171074
:101C600078E0E6E70498006800680390039848F27B
:101C70003F01CFF210010840039004984168826848
:101C8000C368D0F810C01143194341EA0C014269FE
:101C9000114382691143C2691143006A08430399E1
:101CA000084303900498406A042808D1FFE7049889
:101CB000C16A006B0843039908430390FFE7039848
:101CC00004990968086004980068406903900398C3
:101CD00020F0070003900498406A0399084303909A
:101CE0000498406A04281CD1FFE70498806A03998D
:101CF000084303900498C06A002811D0FFE70498B5
:101D0000FEF7BAFC00280AD0FFE70498402141659D
:101D10000498012180F835108DF817101AE0FFE7BC
:101D2000FFE703980499096848610498FEF778FC76
:101D300001900498C06D3F2101FA00F0019988607C
:101D40000498002141650498012280F835208DF81F
:101D50001710FFE79DF8170006B080BD80B588B06A
:101D6000069005910492039300208DF80B000698CD
:101D7000806D0190FFE7069890F83400012804D1A7
:101D8000FFE702208DF81F0047E00698012180F848
:101D90003410FFE7FFE7069890F8350001282DD1B1
:101DA000FFE70698022180F835100698002141656A
:101DB00006980599049A039BFEF7DAFC0698C06D15
:101DC0003F2101FA00F001998860069800680168D7
:101DD00041F0160101600698006C002807D0FFE76B
:101DE00006980068016841F008010160FFE7069865
:101DF0000068016841F00101016009E0FFE7069811
:101E0000002180F83410FFE702208DF80B00FFE777
:101E10009DF80B008DF81F00FFE79DF81F0008B02C
:101E200080BD000080B584B0039000F03DFA0290C0
:101E30000398019001980130002809D0FFE740F293
:101E4000F600C2F200000078019908440190FFE713
:101E5000FFE700F029FA0299401A0199884201D25D
:101E6000FFE7F6E704B080BD81B00146ADF802009F
:101E700001B0704780B582B00146ADF8060043F668
:101E80001440C4F201000068BDF8062010420CD0D6
:101E9000FFE7BDF8060043F61441C4F201010860F3
:101EA000BDF80600FFF7E0FFFFE702B080BD0000CD
:101EB0008EB00D900C9100200A90099008900B9024
:101EC000FFE70B980F2800F2D281FFE70B98012162
:101ED00001FA00F00A900C9800680A9908400990ED
:101EE00009980A99884240F0BD81FFE70C98406844
:101EF00000F00300012807D0FFE70C98406800F0CD
:101F0000030002282FD1FFE70D98806808900B98F6
:101F10004000032101FA00F0089921EA000008902E
:101F20000C98C0680B9949008840089908430890AC
:101F300008980D9988600D98406808900B980121C9
:101F400001FA00F0089921EA000008900C98406816
:101F5000C0F300100B99884008990843089008982E
:101F60000D994860FFE70C98406800F003000328D3
:101F700018D0FFE70D98C06808900B984000032127
:101F800001FA00F0089921EA000008900C98806896
:101F90000B994900884008990843089008980D99C2
:101FA000C860FFE70C98406800F00300022826D1C3
:101FB000FFE70D980B996FF0030202EA5101084404
:101FC000006A08900B9800F0070080000F2101FACA
:101FD00000F0089921EA000008900C9800690B991C
:101FE00001F0070189008840089908430890089883
:101FF0000D990B9B02EA530211440862FFE70D980A
:10200000006808900B984000032101FA00F008993D
:1020100021EA000008900C98406800F003000B993A
:102020004900884008990843089008980D9908606D
:102030000C9880798007002800F01381FFE7FFE704
:102040000020079043F64400C4F20200016841F406
:1020500080410160006800F4804007900798FFE726
:102060000B9820F0030043F60801C4F20101405828
:1020700008900B9800F0030080000F2101FA00F097
:10208000089921EA000008900D980021C4F202018D
:10209000884203D1FFE7002006905EE00D9840F2F1
:1020A0000041C4F20201884203D1FFE701200590FC
:1020B00050E00D9840F60001C4F20201884203D1BD
:1020C000FFE70220049042E00D9840F60041C4F280
:1020D0000201884203D1FFE70320039034E00D980A
:1020E00041F20001C4F20201884203D1FFE704205B
:1020F000029026E00D9841F20041C4F202018842AC
:1021000003D1FFE70520019018E00D9841F600018A
:10211000C4F20201884203D1FFE7062000900AE0E2
:102120000D9841F60041C4F202010822884208BF1E
:1021300007220092FFE700980190FFE701980290C4
:10214000FFE702980390FFE703980490FFE70498E5
:102150000590FFE705980690FFE70698C0B20B9937
:1021600001F0030189008840089908430890089805
:102170000B9921F0030143F60802C4F201028850D2
:1021800043F60840C4F201000068089009980899D5
:1021900021EA000008900C988079C006002805D537
:1021A000FFE70998089908430890FFE7089843F665
:1021B0000841C4F20101086043F60C40C4F201007A
:1021C000006808900998089921EA000008900C9886
:1021D00080798006002805D5FFE70998089908430B
:1021E0000890FFE7089843F60C41C4F2010108602B
:1021F00043F60440C4F20100006808900998089969
:1022000021EA000008900C9880798007002805D505
:10221000FFE70998089908430890FFE7089843F6F4
:102220000441C4F20101086043F60040C4F2010019
:10223000006808900998089921EA000008900C9815
:102240008079C007002805D0FFE70998089908435E
:102250000890FFE7089843F60041C4F201010860C6
:10226000FFE7FFE7FFE70B9801300B9029E60EB080
:102270007047000082B013468C460190ADF8021002
:102280008DF801209DF80100002805D0FFE7BDF87A
:1022900002000199886105E0BDF80200000401997F
:1022A0008861FFE702B0704744F2A010C2F200005C
:1022B0000068704780B58EB00C900C98002804D14F
:1022C000FFE701208DF837004DE10C9890F83D00B4
:1022D000002808D1FFE70C98002180F83C100C98EA
:1022E00000F046F9FFE70C98242180F83D100C9887
:1022F0000068016821F0010101600C980068016824
:1023000041F4004101600C980068016821F400412B
:10231000016001F0C5FD0A900C98406848F2A06188
:10232000C0F2010188420BD8FFE70A9848F28041C9
:10233000C0F21E010022884238BF012209920AE041
:102340000A9840F60011C0F23D010022884238BFD1
:1023500001220992FFE70998012804D1FFE7012033
:102360008DF83700FFE00A984DF68361C4F21B3107
:10237000A0FB0101890C0B910C990968496821F0B7
:102380003F010B9A11430C9A126851600C9909682D
:10239000096A21F03F010C9A526848F2A063C0F22A
:1023A00001039A42089104D8FFE70B980130079087
:1023B0000EE00B984FF49671484344F6D351C1F2A6
:1023C0006201A0FB0101012202EB91110791FFE7DD
:1023D0000798089908430C9A126810620C980068D4
:1023E000C0694CF6FF7290430C9A526848F2A063A1
:1023F000C0F201039A4206901FD8FFE70A980138FD
:102400000C9949684900B0FBF1F001306FF31F30BF
:10241000032803D8FFE7042005900BE00A98013851
:102420000C9949684900B0FBF1F001306FF31F309F
:102430000590FFE7059804904FE00C98806800280D
:102440000DD1FFE70A9801380C99496801EB410169
:10245000B0FBF1F001306FF31F3003900DE00A98EC
:1024600001380C99496819225143B0FBF1F0013051
:10247000042161F31F300390FFE703980005002853
:1024800003D1FFE70120029024E00C988068002827
:102490000DD1FFE70A9801380C99496801EB410119
:1024A000B0FBF1F001306FF31F3001900DE00A989E
:1024B00001380C99496819225143B0FBF1F0013001
:1024C000042161F31F300190FFE7019840F40040C0
:1024D0000290FFE702980490FFE7049806990843EA
:1024E0000C9A1268D0610C980068006820F0C00057
:1024F0000C9A1368D2F81CC0126A42EA0C0210430C
:1025000018600C980068806848F2FF3290430C9A7B
:102510001368D2F80CC0126942EA0C0210439860AA
:102520000C980068C06820F0FF000C9A1368D2F87D
:1025300014C0926942EA0C021043D8600C980068FB
:10254000026842F0010202600C98002202640C98BA
:10255000202380F83D300C9802630C9880F83E20D0
:102560008DF83720FFE79DF837000EB080BD0000E2
:1025700080B58EB00D9000200C900B900A900990C1
:1025800008900D98006845F60041C4F200018842A9
:1025900040F0B480FFE7FFE70020079043F63000EB
:1025A000C4F20200016841F004010160006800F01B
:1025B000040007900798FFE7FFE70020069043F626
:1025C0003000C4F20200016841F0010101600068BE
:1025D00000F0010006900698FFE74FF400700890A5
:1025E0001220099001210A9103220B9204230C93DB
:1025F00040F6000CC4F2020C0DF1200E049060466F
:102600000391714602920193CDF800E0FFF750FC70
:102610004FF4807008900498099003990A91029AE7
:102620000B92019B0C930020C4F202000099FFF76B
:102630003FFCFFE70020059043F64000C4F2020093
:10264000016841F400010160006800F40000059099
:102650000598FFE743F27060C2F2000046F24001C5
:10266000C4F2020101604FF0C0614160002181604D
:10267000C1604FF48062026141618161C1610162A8
:102680004162FFF7AFFA002803D0FFE7FEF7B2F888
:10269000FFE7FFE70D9843F27061C2F2000181632A
:1026A0000D988863FFE743F2D060C2F2000046F263
:1026B0007001C4F2020101604FF0C061416040212D
:1026C00081600021C1604FF48062026141618161DB
:1026D000C16101624162FFF785FA002803D0FFE77C
:1026E000FEF788F8FFE7FFE70D9843F2D061C2F2EA
:1026F000000141630D988863FFE7FFE70EB080BDDE
:1027000040F2F600C2F20000007844F2A011C2F2DA
:1027100000010A68104408607047000080B582B06C
:1027200043F60040C4F20200016841F40071016008
:10273000016841F480610160016841F480710160C9
:10274000032000F095F80F2000F006F8019000F04B
:102750003DF8002002B080BD80B582B0009040F20C
:102760002400C2F20000006840F2F601C2F200014B
:1027700009784FF47A72B2FBF1F1B0FBF1F002F09C
:10278000E3F8002804D0FFE701208DF8070018E0E7
:1027900000980F280DD8FFE700994FF0FF30002276
:1027A00000F046F8009840F2F801C2F2000108601B
:1027B00003E001208DF8070003E000208DF80700FA
:1027C000FFE79DF8070002B080BD000082B0FFE780
:1027D0000020019043F64400C4F20200016841F475
:1027E00080410160006800F4804001900198FFE79B
:1027F000FFE70020009043F64000C4F202000168A9
:1028000041F080510160006800F080500090009815
:10281000FFE702B07047000080B582B001468DF836
:1028200007009DF9070000910BF0DCFE02B080BDAF
:1028300080B588B003468DF81F00069105920020F0
:10284000049003930BF0E8FE04909DF91F00049997
:10285000069A059B0290084611461A4604F02AFA89
:1028600002990190084601990BF0DEFE08B080BD88
:1028700080B582B0019001980BF0F8FE02B080BDE7
:1028800082B00A4601908DF8031002B07047000034
:1028900082B00A460190ADF80210BDF8020001991D
:1028A00009684862002002B07047000084B01346F7
:1028B0008C4603908DF80B10ADF808200398006843
:1028C000406A00909DF80B00002809D1FFE7BDF891
:1028D0000800009941EA004003990968886233E0E2
:1028E00003980068806A009901EB10400090002076
:1028F0008DF80700FFE79DF807009DF80B100139E0
:10290000884213D2FFE7039800689DF8071000EB98
:102910008100D0F80401009901EB10400090FFE71E
:102920009DF8070001308DF80700E4E7BDF80800C6
:10293000009941EA0040039909689DF80B2001EBDA
:102940008201C1F80001FFE7002004B070470000D9
:1029500080B582B001900198D0F8E00407F010FB38
:1029600002B080BD80B584B00A4603908DF80B108C
:102970000398D0F8E0149DF80B3003EBC30C00EB88
:102980008C00006A019008461946019B00921A4685
:1029900007F02CF904B080BD80B584B00A460390DE
:1029A0008DF80B100398D0F8E0149DF80B3003EB72
:1029B000C30C00EB8C00D0F8600201900846194669
:1029C000019B00921A4607F0EFF904B080BD0000A9
:1029D00080B582B001900198D0F8E00407F0D6FAF3
:1029E00002B080BD80B584B00A4603908DF80B100C
:1029F0009DF80B00000600280CD5FFE703989DF812
:102A00000B1001F00F0101EBC10100EB810014304C
:102A100001900CE003989DF80B1001F00F0101EB01
:102A2000C10100EB810000F515700190FFE70398EC
:102A30000068019909F0E8F88DF80A009DF80A008D
:102A400004B080BD80B584B00A4602908DF80710AE
:102A50009DF80700000600280FD5FFE702989DF8B3
:102A6000071001F00F0101EBC10100EB81001430F0
:102A700000900098012141700FE002989DF8071026
:102A800001F00F0101EBC10100EB810000F51570B1
:102A90000090009800214170FFE79DF8070000F0CA
:102AA0000F0000990870FFE7029890F8940401283D
:102AB00004D1FFE702208DF80F0014E002980121F5
:102AC00080F89414FFE7FFE702980068009908F087
:102AD00061FBFFE70298002180F89414FFE70020D3
:102AE0008DF80F00FFE79DF80F0004B080BD0000D7
:102AF00080B584B00A4602908DF807109DF8070053
:102B000000F00F0002990979884204D9FFE70120FB
:102B10008DF80F004DE09DF80700000600280FD546
:102B2000FFE702989DF8071001F00F0101EBC101CA
:102B300000EB8100143000900098012141700FE0FB
:102B400002989DF8071001F00F0101EBC10100EBA5
:102B5000810000F515700090009800214170FFE79A
:102B60000098002181709DF8070000F00F00009987
:102B70000870FFE7029890F89404012804D1FFE759
:102B800002208DF80F0014E00298012180F89414BF
:102B9000FFE7FFE702980068009908F083FDFFE770
:102BA0000298002180F89414FFE700208DF80F00B0
:102BB000FFE79DF80F0004B080BD000082B00A4618
:102BC00001908DF8031001989DF8031001F00F019A
:102BD00001EBC10100EB8100D0F8680202B0704740
:102BE00010B586B09C4696460C4604908DF80F10A2
:102BF000ADF80C208DF80B3000208DF80A009DF800
:102C00000F00000600280FD5FFE704989DF80F106D
:102C100001F00F0101EBC10100EB810014300190C4
:102C20000198012141700FE004989DF80F1001F008
:102C30000F0101EBC10100EB810000F5157001905F
:102C4000019800214170FFE79DF80F0000F00F0090
:102C500001990870BDF80C006FF3DF2001998860BE
:102C60009DF80B000199087101984078002804D064
:102C7000FFE7019801784183FFE79DF80B000228E8
:102C800004D1FFE7019800214171FFE7FFE70498B5
:102C900090F89404012804D1FFE702208DF8170072
:102CA00015E00498012180F89414FFE7FFE70498E9
:102CB0000068019908F034F9FFE70498002180F8D2
:102CC0009414FFE79DF80A008DF81700FFE79DF8C0
:102CD000170006B010BD000080B588B08C46079084
:102CE0008DF81B100592049307989DF81B1001F0B6
:102CF0000F0101EBC10100EB810000F5157003909D
:102D000005980399C8600498039908610398002105
:102D10004161039841709DF81B0000F00F0003997A
:102D2000087007988079012804D1FFE70598039976
:102D3000C861FFE707980168039A80790290084606
:102D40001146029A08F056FD00210190084608B08D
:102D500080BD000080B586B00A4604908DF80F1043
:102D60009DF80F0000F00F0004990979884204D9FA
:102D7000FFE701208DF817005DE09DF80F000006C9
:102D800000280FD5FFE704989DF80F1001F00F0100
:102D900001EBC10100EB8100143002900298012187
:102DA00041700DE004989DF80F1001EBC10100EB9C
:102DB000810000F515700290029800214170FFE734
:102DC0000298012181709DF80F0000F00F00029918
:102DD0000870FFE7049890F89404012804D1FFE7F5
:102DE00002208DF8170026E00498012180F8941441
:102DF000FFE7FFE704980068029908F0A3FC9DF83C
:102E00000F10090700290CD1FFE7049801688279A7
:102E100000F29C40019008461146019A08F0F0FB30
:102E2000FFE7FFE70498002180F89414FFE70020F3
:102E30008DF81700FFE79DF8170006B080BD000071
:102E400080B588B08C4607908DF81B1005920493CE
:102E500007989DF81B1001F00F0101EBC10100EB79
:102E600081001430039005980399C8600498039971
:102E700008610398002141610398012141709DF888
:102E80001B0000F00F000399087007988079012853
:102E900004D1FFE705980399C861FFE70798016827
:102EA000039A8079029008461146029A08F0A2FC23
:102EB00000210190084608B080BD000080B590B0A8
:102EC0000F900F9800680E900E980D900F98006864
:102ED00008F0D4FF002840F01F84FFE70F98006837
:102EE00009F038F8002802D1FFE700F015BC0D9872
:102EF000D0F80808C0F30D200F99C1F8D4040F983A
:102F0000006809F027F88007002807D5FFE70F9829
:102F10000068416901F002014161FFE70F98006814
:102F200009F018F8C006002860D5FFE70F98006880
:102F3000816921F0100181610E98006A06900F9856
:102F4000069901F00F0101EBC10100EB810000F5D2
:102F500015700C90069800F4F0100221B1EB504F60
:102F600022D1FFE7BDF8180047F6F07108421AD0E9
:102F7000FFE70E980C99C968069AC2F30A1208F086
:102F8000F7FF069947F6F07211400C9BD3F80CC07E
:102F90000CEB1111D960069911400C9A536903EB9F
:102FA00011115161FFE71AE0069800F4F0100621B4
:102FB000B1EB504F11D1FFE70E980F9901F29C41F0
:102FC000082208F0D5FF069947F6F07211400C9AD6
:102FD000536903EB1111516100E0FFE7FFE70F9820
:102FE0000068816941F010018161FFE70F98006876
:102FF00008F0B0FF0003002840F1A780FFE70020A1
:1030000008900F98006808F053FF0A90FFE70A98AD
:10301000002800F09980FFE79DF82800C0070028ED
:1030200000F08B80FFE70F9800689DF8201008F0F3
:1030300079FF09909DF82400C00700280CD0FFE715
:103040000D98089900EB41100121C0F8081B0F985A
:10305000089903F0B7FEFFE79DF824000007002859
:103060000CD5FFE70D98089900EB41100821C0F836
:10307000081B0F98089903F05DFEFFE79DF82400F8
:10308000C006002808D5FFE70D98089900EB41100D
:103090001021C0F8081BFFE79DF8240080070028D6
:1030A0002DD5FFE70E9840690006002808D5FFE7F8
:1030B0000D98D0F8041841F48061C0F80418FFE7B7
:1030C0000F98089901EBC10100EB810000F5157024
:1030D0000C900C98C078012809D1FFE70C980021CA
:1030E000C1700F989DF8201000F028FBFFE70D98A5
:1030F000089900EB41100221C0F8081BFFE79DF87A
:1031000024008006002808D5FFE70D98089900EBF9
:1031100041102021C0F8081BFFE79DF8250080061C
:10312000002809D5FFE70D98089900EB41104FF4EE
:103130000051C0F8081BFFE7FFE70898013008902E
:103140000A9840080A9062E7FFE70F98006808F0C5
:1031500001FF4003002840F1CC80FFE70F98006892
:1031600008F094FE0A9000200890FFE70A980028D3
:1031700000F0BE80FFE79DF82800C007002800F09F
:10318000B080FFE70F9800689DF8201008F0A2FEBD
:1031900009909DF82400C007002844D0FFE7089854
:1031A00000F00F00012101FA00F0079007980D9A36
:1031B000D2F8343823EA0000C2F834080D98089A8F
:1031C00000EB4210C0F808190F988079012824D12B
:1031D000FFE70F98089901EBC10100EB8100C1697D
:1031E000026A114401620898002815D1FFE70F9880
:1031F000089901EBC10100EB8100406A00280BD166
:10320000FFE70F98016800F29C42012005900846F4
:10321000059908F0F5F9FFE7FFE70F989DF82010F2
:10322000FFF7A0FBFFE79DF824000007002808D562
:10323000FFE70D98089900EB41100821C0F8081924
:10324000FFE79DF82400C006002808D5FFE70D9889
:10325000089900EB41101021C0F80819FFE79DF80C
:1032600024004006002808D5FFE70D98089900EBD8
:1032700041104021C0F80819FFE79DF8240080079D
:10328000002822D5FFE70E98089908F091FD0F99C4
:10329000089A02EBC20201EB820114310C910C99E5
:1032A000C978012909D1FFE70C980021C1700F9856
:1032B0009DF8201000F032FAFFE70D98089900EB16
:1032C00041100221C0F80819FFE79DF8240000060C
:1032D000002805D5FFE70F98089903F061FEFFE786
:1032E000FFE70898013008900A9840080A903DE7E7
:1032F000FFE70F98006808F02DFEC00F002820D0CF
:10330000FFE70D98D0F8041821F00101C0F8041867
:103310000F9890F8CC04012808D1FFE70F980021FE
:1033200080F8CC140F98FFF7ABFA03E00F9800F089
:10333000CBFBFFE70F980068416901F00041416154
:10334000FFE70F98006808F005FE0005002812D579
:10335000FFE70D98D0F80808C007002804D0FFE761
:103360000F9800F045FCFFE70F980068416901F4F1
:1033700000614161FFE70F98006808F0EBFDC004B1
:10338000002840F18B80FFE70D98D0F8041821F059
:103390000101C0F804180F980068102108F008FD1A
:1033A00000210B91FFE70B980F990979884231D2E0
:1033B000FFE70D980B9900EB41104FF67F31C0F8F5
:1033C00008190D980B9A00EB4210D0F8002922F44E
:1033D0000012C0F800290D980B9A00EB4210C0F8BB
:1033E000081B0D980B9900EB4110D0F8001B21F43D
:1033F0000011C0F8001B0D980B9900EB4110D0F89C
:10340000001B41F00061C0F8001BFFE70B98013082
:103410000B90C8E70D98D0F81C1841F00111C0F8C6
:103420001C180F98C07B00280FD0FFE70D98D0F82C
:10343000841841F00B01C0F884180D98D0F8441896
:1034400041F00B01C0F844180FE00D98D0F81418A3
:1034500042F22B021143C0F814180D98D0F810183E
:1034600041F00B01C0F81018FFE70D98D0F80018D4
:1034700021F4FE61C0F800180F980168827900F20B
:103480009C40049008461146049A08F0B9F80F9938
:1034900009684A6902F480524A61FFE70F980068A0
:1034A00008F058FD8004002825D5FFE70F98006834
:1034B00007F0A6FD0F9909680390084608F0B6FCCE
:1034C0000F99C8710F980068029000F0E3FC0F9903
:1034D000CA79029901900846019908F043FE0F99B4
:1034E0000090084600F0C4FA0F980068416901F4A2
:1034F00000514161FFE70F98006808F02BFD0007BD
:1035000000280AD5FFE70F9800F0E8FA0F98006846
:10351000416901F008014161FFE70F98006808F078
:1035200019FD0006002825D5FFE70E98816921F0D6
:103530008001816101200890FFE708980F990979BF
:10354000884216D2FFE70F98089901EBC10100EB02
:10355000810090F85702012806D1FFE70F989DF8E7
:103560002010FFF73FFAFFE7FFE7089801300890C7
:10357000E3E7FFE70F98006808F0ECFCC0020028C2
:103580003CD5FFE701200890FFE708980F990979DB
:1035900088422CD2FFE70D98089900EB4110D0F833
:1035A000000906900F98089901EBC10100EB81001A
:1035B000007E012816D1FFE79DF81B0000060028B9
:1035C00010D5FFE70F98089901EBC10100EB8100CE
:1035D0000121C1750F989DF8201041F08001FFF77F
:1035E00001FAFFE7FFE7089801300890CDE70F9850
:1035F0000068416901F480114161FFE70F9800689C
:1036000008F0A8FC8002002856D5FFE701200890AA
:10361000FFE708980F990979884246D2FFE70D988D
:10362000089900EB4110D0F8000B06900F9808990C
:1036300001EBC10100EB810090F8580201282FD165
:10364000FFE79DF81B000006002829D5FFE7069834
:1036500000F480300F99D1F8D41401F00101B1EBDE
:10366000104F1DD1FFE70F98089901EBC10100EB46
:103670008100012180F857120E98816941F0800184
:1036800081610E9840690006002808D4FFE70D9874
:10369000D0F8041841F40071C0F8041805E0FFE701
:1036A000FFE7089801300890B3E70F980068416978
:1036B00001F400114161FFE70F98006808F04AFC2F
:1036C000400000280AD5FFE70F98FFF741F90F984F
:1036D0000068416901F080414161FFE70F9800688F
:1036E00008F038FC4007002815D5FFE70F98006860
:1036F000406806909DF818004007002804D5FFE7B1
:103700000F98FFF765F9FFE706980F9909684A686F
:1037100010434860FFE7FFE710B080BD80B584B07C
:103720000A4603908DF80B100398D0F8E0049DF83A
:103730000B10019206F0D4FC04B080BD80B584B0BB
:103740000A4603908DF80B100398D0F8E0049DF81A
:103750000B10019206F002FD04B080BD10B590B0D0
:103760000E900E98002804D1FFE701208DF83F004D
:1037700020E10E9800680D900E9890F895040028AE
:1037800008D1FFE70E98002180F894140E9800F0FD
:1037900015F9FFE70E98032180F895140D98B0F104
:1037A000A04F04D1FFE70E9800218171FFE70E982A
:1037B000006807F01BFF0E990A680B7C8DF82C300F
:1037C0004B68D1F808C0C9680A91CDF824C00893A5
:1037D0000899099BDDF828C0DDF82CE06C46C4F898
:1037E00000E0039010461A46634607F01FFC0028CD
:1037F00008D0FFE70E98022180F8951401208DF87B
:103800003F00D7E00E980068002108F00DFC00286A
:1038100008D0FFE70E98022180F8951401208DF85A
:103820003F00C7E000208DF83300FFE79DF833002C
:103830000E990979884241DAFFE70E989DF8331016
:1038400001EBC10100EB8100012141759DF83300BE
:103850000E9900EBC00201EB820108759DF8330060
:103860000E9900EBC00201EB8201C8850E989DF80D
:10387000331001EBC10100EB8100002101760E98AD
:103880009DF8332002EBC20200EB8200C1610E986A
:103890009DF8332002EBC20200EB820001620E9819
:1038A0009DF8332002EBC20200EB82004162FFE789
:1038B0009DF8330001308DF83300B7E700208DF814
:1038C0003300FFE79DF833000E99097988423EDA0C
:1038D000FFE70E989DF8331001EBC10100EB81006A
:1038E000002180F855129DF833000E9A00EBC003BA
:1038F00002EB830282F854020E989DF8332002EB0B
:10390000C20200EB820080F858120E989DF8332016
:1039100002EBC20200EB8200C0F85C120E989DF828
:10392000332002EBC20200EB8200C0F860120E9856
:103930009DF8332002EBC20200EB8200C0F8641253
:10394000FFE79DF8330001308DF83300BAE70E9899
:103950000168027C8DF81C2042688368C06806906C
:10396000059304920498059A069BDDF81CC0EE4668
:10397000CEF800C002900846029907F0DDFC00284E
:1039800008D0FFE70E98022180F8951401208DF8E9
:103990003F000FE00E98002141740E98012280F83C
:1039A00095240E980068019107F0B0FC01998DF8FC
:1039B0003F10FFE79DF83F0010B010BD80B58AB002
:1039C00009900020089007900690059004900998AF
:1039D0000068B0F1A04F48D1FFE7FFE70020039057
:1039E00043F63000C4F20200016841F001010160B9
:1039F000006800F0010003900398FFE74FF4C05007
:103A000004900220059000200690032007900A20D1
:103A100008900020C4F2020004A9FEF749FAFFE76B
:103A200043F63400C4F20200016841F080010160F5
:103A3000FFE70020029043F64400C4F20200016850
:103A400041F480410160006800F4804002900298D7
:103A5000FFE7FFE74320002101900091009AFEF765
:103A6000E7FE0198FEF7D8FEFFE70AB080BD000030
:103A700080B584B0039001208DF80B000398C079C5
:103A8000002804D1FFE700208DF80B000CE003981C
:103A9000C079022804D1FFE701208DF80B0002E075
:103AA000FCF7A8FEFFE7FFE70398D0F8E0049DF8D5
:103AB0000B1006F077FC0399D1F8E014019008464A
:103AC00006F0DCFB04B080BD80B582B001900198A7
:103AD000D0F8E00406F032FC02B080BD80B582B0C0
:103AE00001900198D0F8E00406F03AFC02B080BDE5
:103AF00080B584B00A4602908DF80710FFE702985F
:103B000090F89404012804D1FFE702208DF80F00FB
:103B100019E00298012180F89414FFE7FFE79DF86F
:103B2000070002994874029800689DF8071008F091
:103B3000EBFAFFE70298002180F89414FFE70020D9
:103B40008DF80F00FFE79DF80F0004B080BD000066
:103B500080B582B001900198D0F8E01400F29C404A
:103B600000900846009906F049FC02B080BD0000B4
:103B700080B584B00290029800680190FFE7029837
:103B800090F89404012804D1FFE702208DF80F007B
:103B90002AE00298012180F89414FFE7FFE70198DA
:103BA000C068400600280BD5FFE70298407B01283B
:103BB00006D1FFE70198816B41F480318163FFE713
:103BC0000298006808F0B0F8029909680090084669
:103BD00007F086FBFFE70298002180F89414FFE7C6
:103BE00000208DF80F00FFE79DF80F0004B080BDA6
:103BF00080B582B001900198D0F8E00406F084FC12
:103C000001990968D1F8002E42F00102C1F8002E96
:103C10000199C97A002909D0FFE74EF61050CEF27B
:103C20000000016841F006010160FFE702B080BDBD
:103C300080B584B0029001910298002804D1FFE77A
:103C400001208DF80F0021E1019843F60041C4F2F4
:103C50000201096801F00701884212D9FFE70198C3
:103C600043F60041C4F202010870086800F0070042
:103C70000199884204D0FFE701208DF80F0005E18B
:103C8000FFE702980078800700282AD5FFE702980E
:103C900000784007002809D5FFE743F60800C4F282
:103CA0000200016841F4E0510160FFE702980078EA
:103CB0000007002809D5FFE743F60800C4F2020018
:103CC000016841F460410160FFE743F60800C4F277
:103CD0000200016821F0F001029A9268114301602C
:103CE000FFE702980078C00700286ED0FFE702982F
:103CF0004068012811D1FFE743F60000C4F202003A
:103D0000006800F400300021B1EB504F04D1FFE710
:103D100001208DF80F00B9E02CE0029840680228DD
:103D200005D0FFE702984068032811D1FFE743F66A
:103D30000000C4F20200006800F000700021B1EB46
:103D4000506F04D1FFE701208DF80F009EE010E0D6
:103D500043F60000C4F20200006800F002000021F7
:103D6000B1EB500F04D1FFE701208DF80F008DE07B
:103D7000FFE7FFE743F60800C4F20200016821F004
:103D80000301029A526811430160FEF78DFA009018
:103D9000FFE743F60800C4F20200006800F00C00E0
:103DA00002994968B0EB810F0ED0FFE7FEF77CFA6D
:103DB0000099401A41F28931884204D3FFE7032079
:103DC0008DF80F0062E0E4E7FFE7019843F6004159
:103DD000C4F20201096801F00701884212D2FFE72C
:103DE000019843F60041C4F202010870086800F02F
:103DF00007000199884204D0FFE701208DF80F00E9
:103E000044E0FFE702980078400700280CD5FFE760
:103E100043F60800C4F20200016821F4E051029A5E
:103E2000D26811430160FFE702980078000700287C
:103E30000DD5FFE743F60800C4F20200016821F443
:103E40006041029A126941EAC2010160FFE700F095
:103E50004BF843F60801C4F202010968C9B2090926
:103E60004EF61832C0F60002515CC84040F2240100
:103E7000C2F20001086040F2F800C2F200000068DF
:103E8000FEF76AFC00218DF80F10FFE79DF80F0088
:103E900004B080BD40F22400C2F200000068704708
:103EA00080B5FFF7F7FF43F60801C4F20201096885
:103EB000C1F382214EF62832C0F60002515CC840A0
:103EC00080BD000080B5FFF7E5FF43F60801C4F2AE
:103ED0000201096889B2490B4EF62832C0F6000289
:103EE000515CC84080BD000080B586B000200590C0
:103EF00004900390029043F60800C4F202000068A8
:103F000000F00C0001460028019108D0FFE701985D
:103F100004280AD0FFE7019808280CD04FE042F2AD
:103F20000040C0F2F40002904FE041F60030C0F2D1
:103F3000B700029049E043F60400C4F202000168B1
:103F400001F03F01059100684002002813D5FFE70A
:103F500043F60400C4F202000068C0F3881041F682
:103F60000031C0F2B701A0FB0101059A0023FCF764
:103F700029F9049012E043F60400C4F2020000683C
:103F8000C0F3881042F20041C0F2F401A0FB01012D
:103F9000059A0023FCF716F90490FFE743F60400A6
:103FA000C4F20200006800F44030022101EBD0307E
:103FB000039004980399B0FBF1F0029005E042F2FF
:103FC0000040C0F2F4000290FFE7029806B080BD06
:103FD00080B586B004900498002804D1FFE7012042
:103FE0008DF8170055E304980078C007002800F00A
:103FF000A780FFE743F60800C4F20200006800F063
:104000000C00042813D0FFE743F60800C4F20200B6
:10401000006800F00C0008281FD1FFE743F60400F9
:10402000C4F2020000684002002816D5FFE743F6FC
:104030000000C4F20200006800F400300021B1EB7F
:10404000504F09D0FFE704984068002804D1FFE7EB
:1040500001208DF817001CE371E0FFE70498406829
:10406000B0F5803F09D1FFE743F60000C4F202003B
:10407000016841F48031016020E004984068B0F5A7
:10408000A02F0DD1FFE743F60000C4F20200016843
:1040900041F480210160016841F4803101600CE04D
:1040A00043F60000C4F20200016821F4803101608F
:1040B000016821F480210160FFE7FFE7FFE7049832
:1040C000406800281DD0FFE7FEF7EEF80390FFE7F9
:1040D00043F60000C4F20200006800F40030002142
:1040E000B1EB504F0CD1FFE7FEF7DEF80399401A11
:1040F000652804D3FFE703208DF81700C9E2E7E73E
:104100001CE0FEF7D1F80390FFE743F60000C4F28D
:104110000200006800F400300021B1EB504F0CD0D9
:10412000FFE7FEF7C1F80399401A652804D3FFE7BB
:1041300003208DF81700ACE2E7E7FFE7FFE7FFE7B2
:10414000049800788007002840F19780FFE743F645
:104150000800C4F20200006810F00C0F13D0FFE753
:1041600043F60800C4F20200006800F00C000828C2
:104170002CD1FFE743F60400C4F2020000684002BD
:10418000002823D4FFE743F60000C4F202000068D1
:1041900000F002000021B1EB500F09D0FFE70498B6
:1041A000C068012804D0FFE701208DF8170070E2F5
:1041B00043F60000C4F20200016821F0F801049AFD
:1041C000126941EAC2010160FFE755E00498C06846
:1041D00000282ED0FFE70020C4F247200121016013
:1041E000FEF762F80390FFE743F60000C4F2020016
:1041F000006800F002000021B1EB500F0CD1FFE786
:10420000FEF752F80399401A032804D3FFE703206E
:104210008DF817003DE2E7E743F60000C4F2020024
:10422000016821F0F801049A126941EAC2010160B3
:1042300021E00020C4F2472000210160FEF734F89D
:104240000390FFE743F60000C4F20200006800F0AC
:1042500002000021B1EB500F0CD0FFE7FEF724F86D
:104260000399401A032804D3FFE703208DF81700B1
:104270000FE2E7E7FFE7FFE7FFE7049800780007B2
:1042800000284CD5FFE704984069002823D0FFE7B9
:1042900040F68060C4F2472001210160FEF704F877
:1042A0000390FFE743F67400C4F20200006800F0D8
:1042B00002000021B1EB500F0CD1FFE7FDF7F4FF36
:1042C0000399401A032804D3FFE703208DF8170051
:1042D000DFE1E7E722E040F68060C4F247200021FA
:1042E0000160FDF7E1FF0390FFE743F67400C4F2BD
:1042F0000200006800F002000021B1EB500F0CD06A
:10430000FFE7FDF7D1FF0399401A032804D3FFE725
:1043100003208DF81700BCE1E7E7FFE7FFE704980B
:1043200000784007002840F1CF80FFE700208DF89B
:10433000070043F64000C4F202000068C0000028F5
:1043400015D4FFE7FFE70020009043F64000C4F2D9
:104350000200016841F080510160006800F0805067
:1043600000900098FFE701208DF80700FFE747F273
:104370000000C4F200000068C005002822D4FFE756
:1043800047F20000C4F20000016841F4807101604E
:10439000FDF78AFF0390FFE747F20000C4F2000038
:1043A0000068C00500280CD4FFE7FDF77DFF0399E6
:1043B000401A032804D3FFE703208DF8170068E1B3
:1043C000EAE7FFE7FFE704988068012809D1FFE7E3
:1043D00043F67000C4F20200016841F0010101607F
:1043E0001FE00498806805280DD1FFE743F67000B0
:1043F000C4F20200016841F004010160016841F06B
:10440000010101600CE043F67000C4F20200016893
:1044100021F001010160016821F004010160FFE762
:10442000FFE7FFE70498806800281FD0FFE7FDF74B
:104430003BFF0390FFE743F67000C4F20200006800
:1044400000F002000021B1EB500F0ED1FFE7FDF7A5
:104450002BFF0399401A41F28931884204D3FFE7C8
:1044600003208DF8170014E1E5E71EE0FDF71CFFBF
:104470000390FFE743F67000C4F20200006800F00A
:1044800002000021B1EB500F0ED0FFE7FDF70CFF4B
:104490000399401A41F28931884204D3FFE703208F
:1044A0008DF81700F5E0E5E7FFE79DF80700012824
:1044B00009D1FFE743F64000C4F20200016821F091
:1044C00080510160FFE7FFE704988069002800F051
:1044D000DC80FFE743F60800C4F20200006800F049
:1044E0000C00082800F08580FFE704988069022806
:1044F0005CD1FFE76020C4F2472000210160FDF796
:10450000D3FE0390FFE743F60000C4F20200006808
:1045100000F000700021B1EB506F0CD0FFE7FDF709
:10452000C3FE0399401A032804D3FFE703208DF844
:104530001700AEE0E7E70498C169026A436AD0F861
:1045400028C0114341EA83114FEACC324FF6FF7382
:104550009A43A2F580321143C06A41EA006043F6F3
:104560000401C4F2020108606020C4F24720012166
:104570000160FDF799FE0390FFE743F60000C4F2E7
:104580000200006800F000700021B1EB506F0CD108
:10459000FFE7FDF789FE0399401A032804D3FFE7DC
:1045A00003208DF8170074E0E7E721E06020C4F2F3
:1045B000472000210160FDF777FE0390FFE743F6F7
:1045C0000000C4F20200006800F000700021B1EBAE
:1045D000506F0CD0FFE7FDF767FE0399401A0328E0
:1045E00004D3FFE703208DF8170052E0E7E7FFE769
:1045F0004AE004988069012804D1FFE701208DF882
:10460000170046E043F60400C4F20200006802907E
:1046100004988069012831D0FFE7029800F48000F7
:104620000499C969884229D1FFE7029800F03F0048
:104630000499096A884221D1FFE7029847F6C071C0
:1046400008400499496AB0EB811F17D1FFE702982F
:1046500000F440300499896AC9034FF6FF72914310
:10466000A1F58031884209D1FFE7029800F070601F
:104670000499C96AB0EB016F04D0FFE701208DF8FF
:10468000170006E0FFE7FFE7FFE700208DF81700BF
:10469000FFE79DF8170006B080BD000080B582B02E
:1046A00000900098002804D1FFE701208DF8070052
:1046B00072E00098406A00280CD1FFE7009840683B
:1046C000B0F5827F01D1FFE703E000980021C161CE
:1046D000FFE705E000980021016100984161FFE7D4
:1046E000009800218162009890F85100002808D1BC
:1046F000FFE70098002180F85010009800F050F873
:10470000FFE70098022180F85110009800680168C6
:1047100021F0400101600098016842688368D0F888
:104720000CC002F4827203F404431A440CF40063D4
:104730001A44036903F002031A44436903F00103B6
:104740001A44836903F400731A44C36903F03803FD
:104750001A44036A03F080031A43806A00F400508D
:10476000104308600098418B01F004010268406A20
:1047700000F010000844506000980068C16921F4FE
:104780000061C1610098002141650098012280F814
:1047900051208DF80710FFE79DF8070002B080BD9B
:1047A00080B58EB00D9000200C900B900A9009906F
:1047B00008900D98006843F20001C4F2010188429C
:1047C00040F0C080FFE7FFE70020079043F6440079
:1047D000C4F20200016841F480510160006800F4F5
:1047E000805007900798FFE7FFE70020069043F608
:1047F0003000C4F20200016841F00201016000686B
:1048000000F0020006900698FFE7FFE70020059001
:1048100043F63000C4F20200016841F0010101607A
:10482000006800F0010005900598FFE71820089047
:104830000220099001210A9103220B9205230C9377
:1048400040F2004CC4F2020C0DF1200E04906046C0
:104850000391714602920193CDF800E0FDF728FB29
:10486000802008900498099003990A91029A0B926B
:10487000019B0C930020C4F202000099FDF718FB85
:1048800043F23070C2F2000046F24041C4F202012D
:1048900001604FF0C061416000218160C1604FF450
:1048A0008062026141618161C1614FF44032026204
:1048B00004224262029A8262C1620163FDF792F9A8
:1048C000002803D0FFE7FBF795FFFFE7FFE70D9810
:1048D00043F23071C2F20001C1640D988863FFE7B2
:1048E00043F29070C2F2000046F25841C4F2020155
:1048F00001604FF0C0614160402181600021C160D2
:104900004FF48062026141618161C1614FF4003204
:1049100002620422426203228262C1620163FDF7E5
:1049200061F9002803D0FFE7FBF764FFFFE7FFE72B
:104930000D9843F29071C2F2000181640D98886372
:10494000FFE7FFE70EB080BD80B582B0019001980F
:1049500002F0E2FB02B080BD81B0009001B0704770
:1049600081B0009001B0704784B0029001910020A6
:104970000090FFE7029890F83C00012804D1FFE77F
:1049800002208DF80F0044E00298012180F83C10CD
:10499000FFE7FFE7009820F0FF000199C96808438E
:1049A0000090009820F440700199896808430090B5
:1049B000009820F4806001994968084300900098AD
:1049C00020F400600199096808430090009820F4E1
:1049D00080500199096908430090009820F4005024
:1049E0000199496908430090009820F4804001999A
:1049F000C969084300900098029909684864FFE774
:104A00000298002180F83C10FFE700208DF80F008D
:104A1000FFE79DF80F0004B07047000085B00390D9
:104A20000291FFE7039890F83C00012804D1FFE7CA
:104A300002208DF813007EE00398012180F83C10DD
:104A4000FFE7FFE70398022180F83D100398006814
:104A5000406801900398006880680090019820F0F9
:104A60007000019002980068019908430190019834
:104A7000039909684860039800680021C4F20101A5
:104A800088423CD0FFE703980068B0F1804F36D0F1
:104A9000FFE70398006840F20041C4F20001884239
:104AA0002DD0FFE70398006840F60001C4F2000132
:104AB000884224D0FFE70398006840F60041C4F222
:104AC000000188421BD0FFE70398006840F20041D4
:104AD000C4F20101884212D0FFE70398006844F253
:104AE0000001C4F20101884209D0FFE70398006881
:104AF00041F60001C4F2000188420ED1FFE70098A0
:104B000020F08000009002984068009908430090CF
:104B10000098039909688860FFE70398012180F8ED
:104B20003D10FFE70398002180F83C10FFE70020CC
:104B30008DF81300FFE79DF8130005B070470000E3
:104B400080B584B002900298002804D1FFE70120CC
:104B50008DF80F0043E0029890F83D00002808D13E
:104B6000FFE70298002180F83C10029800F03CF822
:104B7000FFE70298022180F83D10029850F8041BCC
:104B800001900846019902F06FFB0298012180F81C
:104B90004610FFE70298012180F83E10029880F845
:104BA0003F10029880F84010029880F84110FFE70B
:104BB000FFE70298012180F84210029880F8431024
:104BC000029880F84410029880F84510FFE7029898
:104BD000012180F83D1000208DF80F00FFE79DF8BF
:104BE0000F0004B080BD000080B588B00790079822
:104BF00000680021C4F20101884212D1FFE7FFE7FB
:104C00000020069043F64400C4F20200016841F01F
:104C100001010160006800F0010006900698FFE7BE
:104C200081E00798006840F20041C4F20001884228
:104C300012D1FFE7FFE70020059043F64000C4F2E1
:104C40000200016841F002010160006800F002000A
:104C500005900598FFE765E00798006840F60001B9
:104C6000C4F2000188421BD1FFE7FFE70020049057
:104C700043F64000C4F20200016841F00401016003
:104C8000006800F0040004900498FFE71E20012152
:104C900000220190FDF7CCFD0198FDF7BDFD40E03D
:104CA0000798006840F60041C4F2000188421BD119
:104CB000FFE7FFE70020039043F64000C4F2020044
:104CC000016841F008010160006800F008000390ED
:104CD0000398FFE73220012100220090FDF7A8FD94
:104CE0000098FDF799FD1BE00798006844F2004129
:104CF000C4F20101884212D1FFE7FFE700200290D1
:104D000043F64400C4F20200016841F4003101603E
:104D1000006800F4003002900298FFE7FFE7FFE729
:104D2000FFE7FFE7FFE708B080BD000083B0019018
:104D3000019890F83D00012804D0FFE701208DF88C
:104D40000B006AE00198022180F83D10019800688C
:104D5000C16841F00101C160019800680021C4F2FE
:104D6000010188423CD0FFE701980068B0F1804F14
:104D700036D0FFE70198006840F20041C4F200011C
:104D800088422DD0FFE70198006840F60001C4F288
:104D90000001884224D0FFE70198006840F60041F6
:104DA000C4F2000188421BD0FFE70198006840F27E
:104DB0000041C4F20101884212D0FFE70198006867
:104DC00044F20001C4F20101884209D0FFE70198D2
:104DD000006841F60001C4F20001884212D1FFE7E9
:104DE00001980068806800F007000090009806288D
:104DF00007D0FFE701980068016841F001010160F8
:104E0000FFE706E001980068016841F001010160D8
:104E1000FFE700208DF80B00FFE79DF80B0003B0C3
:104E20007047000080B58CB00A90099100208DF881
:104E30002300FFE70A9890F83C00012804D1FFE71F
:104E400002208DF82F00BBE00A98012180F83C1069
:104E5000FFE7FFE70A98022180F83D100A980068F2
:104E600080680790079820F077000790079820F453
:104E70007F40079007980A99096888600998006838
:104E80000028069000F08280FFE7069810287DD069
:104E9000FFE70698202879D0FFE70698302875D0DC
:104EA000FFE70698402861D0FFE7069850283DD0DC
:104EB000FFE70698602849D0FFE7069870280BD0D6
:104EC000FFE70698B0F5805F05D0FFE70698B0F5DC
:104ED000005F19D061E064E00A98006809994A68A7
:104EE0008B68C96805911946059B02F09FFA0A98DC
:104EF000006880680790079840F07700079007984F
:104F00000A99096888604CE00A98006809994A681B
:104F10008B68C96804911946049B02F087FA0A98C5
:104F20000068816841F4804181603AE00A98006835
:104F300009994A68C96803911146039A02F06CFD09
:104F40000A980068502102F08BFA2AE00A9800685B
:104F500009994A68C96802911146029A02F084FDD3
:104F60000A980068602102F07BFA1AE00A9800684B
:104F700009994A68C96801911146019A02F04CFDED
:104F80000A980068402102F06BFA0AE00A9800686B
:104F90000999096802F064FA03E001208DF8230002
:104FA000FFE70A98012180F83D10FFE70A980021E9
:104FB00080F83C10FFE79DF823008DF82F00FFE7F5
:104FC0009DF82F000CB080BD81B0009001B07047FB
:104FD00080B584B0039003980068C068029003987D
:104FE0000068006901909DF804008007002825D51D
:104FF000FFE79DF80800800700281ED5FFE703980B
:1050000000686FF0020101610398012101770398A4
:10501000006880698007002804D0FFE70398FFF745
:10502000D3FF06E0039800F047F9039800F042FA36
:10503000FFE7039800210177FFE7FFE79DF80400F1
:105040004007002825D5FFE79DF808004007002805
:105050001ED5FFE7039800686FF004010161039813
:105060000221017703980068806910F4407F04D022
:10507000FFE70398FFF7A8FF06E0039800F01CF98C
:10508000039800F017FAFFE7039800210177FFE784
:10509000FFE79DF804000007002825D5FFE79DF8ED
:1050A0000800000700281ED5FFE7039800686FF08E
:1050B0000801016103980421017703980068C06921
:1050C0008007002804D0FFE70398FFF77DFF06E084
:1050D000039800F0F1F8039800F0ECF9FFE703986B
:1050E00000210177FFE7FFE79DF80400C0060028D4
:1050F00025D5FFE79DF80800C00600281ED5FFE76C
:10510000039800686FF0100101610398082101778E
:1051100003980068C06910F4407F04D0FFE703984B
:10512000FFF752FF06E0039800F0C6F8039800F07E
:10513000C1F9FFE7039800210177FFE7FFE79DF83A
:105140000400C007002810D0FFE79DF80800C00742
:10515000002809D0FFE7039800686FF001010161A2
:10516000039800F0ABF9FFE7FFE79DF804000006A5
:10517000002810D5FFE79DF808000006002809D593
:10518000FFE7039800686FF0800101610398FFF763
:10519000E3FBFFE7FFE79DF804004006002810D579
:1051A000FFE79DF808004006002809D5FFE70398AF
:1051B00000686FF040010161039800F06DFAFFE7AD
:1051C000FFE79DF804008006002810D5FFE79DF852
:1051D00008008006002809D5FFE7039800686FF0F3
:1051E000200101610398FFF7BBFBFFE7FFE704B075
:1051F00080BD000080B588B0079000200690059023
:10520000049003900290079800680021C4F2010105
:10521000884223D1FFE7FFE70020019043F63000EA
:10522000C4F20200016841F010010160006800F062
:10523000100001900198FFE74FF400500290022007
:1052400003900020049005900120069041F2000098
:10525000C4F2020002A9FCF72BFE2BE007980068BD
:1052600044F20041C4F20101884222D1FFE7FFE786
:105270000020009043F63000C4F20200016841F0C3
:1052800020010160006800F0200000900098FFE716
:1052900040200290022003900021049105900320F9
:1052A000069041F20040C4F2020002A9FCF700FEA1
:1052B000FFE7FFE708B080BD81B0009001B0704704
:1052C00080B586B004900391029200208DF807000B
:1052D000FFE7049890F83C00012804D1FFE7022082
:1052E0008DF8170089E00498012180F83C10FFE751
:1052F000FFE702980C28009000F270800099DFE828
:1053000001F0076D6D6D206D6D6D3A6D6D6D530023
:1053100004980068039902F0C3F904980068816951
:1053200041F00801816104980068816921F004015D
:10533000816103980069049909688A69104388614A
:1053400050E004980068039902F020FA049800687D
:10535000816941F40061816104980068816921F4E8
:105360008061816103980069049909688A6942EA49
:105370000020886136E004980068039902F080FA02
:1053800004980068C16941F00801C161049800688F
:10539000C16921F00401C161039800690499096899
:1053A000CA691043C8611DE004980068039902F0BF
:1053B000E1FA04980068C16941F40061C161049890
:1053C0000068C16921F48061C16103980069049992
:1053D0000968CA6942EA0020C86103E001208DF82B
:1053E0000700FFE7FFE70498002180F83C10FFE783
:1053F0009DF807008DF81700FFE79DF8170006B02D
:1054000080BD000080B584B002900298002804D1CD
:10541000FFE701208DF80F0043E0029890F83D006F
:10542000002808D1FFE70298002180F83C1002987C
:1054300000F03CF8FFE70298022180F83D10029846
:1054400050F8041B01900846019901F00DFF0298E5
:10545000012180F84610FFE70298012180F83E10F4
:10546000029880F83F10029880F84010029880F867
:105470004110FFE7FFE70298012180F842100298EF
:1054800080F84310029880F84410029880F8451084
:10549000FFE70298012180F83D1000208DF80F00F1
:1054A000FFE79DF80F0004B080BD000081B00090C0
:1054B00001B0704781B0009001B0704780B582B0F4
:1054C0000190019800680021C4F20101884207D1CF
:1054D000FFE740F2B410C2F2000040688047D9E014
:1054E00001980068B0F1804F07D1FFE740F2BC108F
:1054F000C2F2000040688047CBE00198006840F2AB
:105500000041C4F20001884207D1FFE740F2C41015
:10551000C2F2000040688047BAE00198006840F697
:105520000001C4F20001884207D1FFE740F2CC102D
:10553000C2F2000040688047A9E00198006840F688
:105540000041C4F20001884207D1FFE740F2D410C5
:10555000C2F200004068804798E00198006841F27C
:105560000001C4F20001884207D1FFE740F2DC10DD
:10557000C2F200004068804787E00198006841F26D
:105580000041C4F20001884207D1FFE740F2E41075
:10559000C2F200004068804776E00198006840F25F
:1055A0000041C4F20101884207D1FFE740F2EC104C
:1055B000C2F200004068804765E00198006844F24C
:1055C0000001C4F20101884207D1FFE740F2F41064
:1055D000C2F200004068804754E00198006844F23D
:1055E0000041C4F20101884207D1FFE740F28C106C
:1055F000C2F200004068804743E00198006844F62A
:105600000001C4F20101884207D1FFE740F2941083
:10561000C2F200004068804732E00198006841F61D
:105620000001C4F20001884207D1FFE740F29C105C
:10563000C2F200004068804721E00198006841F60E
:105640000041C4F20001884207D1FFE740F2A410F4
:10565000C2F200004068804710E00198006842F202
:105660000001C4F20001884207D1FFE740F2AC100C
:10567000C2F2000040688047FFE7FFE7FFE7FFE76F
:10568000FFE7FFE7FFE7FFE7FFE7FFE7FFE7FFE7EA
:10569000FFE7FFE702B080BD81B0009001B0704726
:1056A00080B586B0134604900391ADF80A200498A3
:1056B00090F8420020284AD1FFE70398002805D03F
:1056C000FFE7BDF80A00002804D1FFE701208DF8AC
:1056D000170040E004980121016304980021416310
:1056E00004980399BDF80A2002F04EFF8DF80900D6
:1056F0000498006B012821D1FFE7FFE7002001900B
:10570000049800680068019004980068406801905F
:105710000198FFE7FFE7FFE70498006850E8030FF0
:1057200040F010000090FFE700980499096841E8F4
:105730000302002AF0D1FFE7FFE703E001208DF824
:105740000900FFE79DF809008DF8170003E002202B
:105750008DF81700FFE79DF8170006B080BD000028
:1057600080B594B00A461390ADF84A1013980068BB
:1057700041F20001C4F2010188421DD1FFE7BDF8EA
:105780004A0040F2FC11C2F20001A1F80801D1F870
:105790000C01BDF84A2001F18403119018461091C4
:1057A0001146119A0F93904713981099B1F804215C
:1057B0000F99FFF775FFC2E01398006844F20041AB
:1057C000C4F2000188421DD1FFE7BDF84A0040F253
:1057D0000C31C2F20001A1F80801D1F80C01BDF8AA
:1057E0004A2001F184030E9018460D9111460E9A3D
:1057F0000C93904713980D99B1F804210C99FFF779
:105800004FFF9BE01398006844F60001C4F20001CA
:1058100088421DD1FFE7BDF84A0040F21C41C2F2A8
:105820000001A1F80801D1F80C01BDF84A2001F1EE
:1058300084030B9018460A9111460B9A09939047DE
:1058400013980A99B1F804210999FFF729FF74E028
:105850001398006844F60041C4F2000188421DD14B
:10586000FFE7BDF84A0040F22C51C2F20001A1F856
:105870000801D1F80C01BDF84A2001F18403089019
:10588000184607911146089A06939047139807996E
:10589000B1F804210699FFF703FF4DE01398006863
:1058A00045F20001C4F2000188421DD1FFE7BDF8B6
:1058B0004A0040F23C61C2F20001A1F80801D1F8AF
:1058C0000C01BDF84A2001F18403059018460491AB
:1058D0001146059A0393904713980499B1F804214F
:1058E0000399FFF7DDFE26E01398006841F20041BE
:1058F000C4F2010188421DD1FFE7BDF84A0040F221
:105900004C71C2F20001A1F80801D1F80C01BDF8F8
:105910004A2001F184030290184601911146029A2F
:105920000093904713980199B1F804210099FFF76B
:10593000B7FEFFE7FFE7FFE7FFE7FFE7FFE714B08A
:1059400080BD000080B584B00390002002900398D1
:1059500000684069C0B2C0090290039890F8410005
:10596000212825D1FFE70298002821D0FFE7FFE793
:10597000FFE70398006850E8050F20F080000190D1
:10598000FFE701980399096841E80502002AF0D170
:10599000FFE7FFE70398806B002805D0FFE7039837
:1059A000806BFBF7E1FEFFE7039802F0A5FBFFE742
:1059B000039800684069C0F380100290039890F843
:1059C0004200222825D1FFE70298002821D0FFE7D6
:1059D000FFE7FFE70398006850E8050F20F040005C
:1059E0000090FFE700980399096841E80502002A42
:1059F000F0D1FFE7FFE70398C06B002805D0FFE771
:105A00000398C06BFBF7B0FEFFE7039802F016FBAC
:105A1000FFE7002004B080BD81B0009001B0704766
:105A200080B592B01190119800680068109011989C
:105A30000068C0680F901198006840690E900020BF
:105A40000D900C90109800F00F000D900D9800280C
:105A500011D1FFE79DF84000800600280AD5FFE736
:105A60009DF83C008006002804D5FFE7119802F05D
:105A700027FC0AE2FFE70D98002800F0CA80FFE744
:105A80009DF83800C007002807D1FFE7BDF83C00AB
:105A900010F4907F00F0BD80FFE79DF84000C00744
:105AA00000280CD0FFE79DF83D00C007002806D075
:105AB000FFE71198416C41F001014164FFE79DF857
:105AC0004000400700280CD5FFE79DF83800C007CC
:105AD000002806D0FFE71198416C41F002014164B3
