:020000040800F2
:1000000078210020A1010008D51B0008AB180008CA
:10001000D11B0008AD020008C1220008000000004A
:10002000000000000000000000000000B301000814
:10003000AB03000800000000B7010008D71B000850
:10004000BB010008BB010008BB010008BB010008A0
:10005000BB010008BB010008BB010008BB01000890
:10006000BB010008BB010008BB010008BB01000880
:10007000B1020008BB010008BB010008BB01000879
:10008000BB010008BB010008BB010008BB01000860
:10009000BB010008BB010008BB010008BB01000850
:1000A000BB010008BB010008BB010008BB01000840
:1000B000BB010008BB010008BB010008BB01000830
:1000C000BB010008BB010008BB010008BB01000820
:1000D000BB010008BB010008BB010008BB01000810
:1000E000BB010008BB010008BB010008BB01000800
:1000F000BB010008BB010008BB010008BB010008F0
:10010000BB010008BB010008BB010008BB010008DF
:10011000BB010008BB010008BB010008BB010008CF
:10012000BB010008BB010008BB010008BB010008BF
:10013000BB010008BB010008BB010008BB010008AF
:10014000BB010008BB010008BB010008BB0100089F
:10015000BB010008BB010008BB010008BB0100088F
:10016000BB010008BB010008BB010008BB0100087F
:10017000BB010008BB010008BB0100080000000033
:10018000BB010008BB010008DFF810D000F07CF8CC
:1001900000480047E5220008AFF3008078210020E6
:1001A0000648804706480047FEE7FEE7FEE7FEE711
:1001B000FEE7FEE7FEE7FEE7FEE7FEE7951C000828
:1001C000890100082DE9F05F0546002092469B4614
:1001D00088460646814640241BE02846414647465D
:1001E000224600F041F853465A46C01A914110D3B6
:1001F00011461846224600F028F82D1A67EB010830
:100200004F4622460120002100F01FF817EB00099D
:100210004E41201EA4F10104DFDC484631462A4647
:100220004346BDE8F09FD2B201E000F8012B491E21
:10023000FBD270470022F6E710B513460A46044683
:100240001946FFF7F0FF204610BD202A04DB203AB4
:1002500000FA02F1002070479140C2F1200320FA19
:1002600003F3194390407047202A04DB203A21FA17
:1002700002F00021704721FA02F3D040C2F12002BF
:100280009140084319467047064C074D06E0E06868
:1002900040F0010394E8070098471034AC42F6D3CD
:1002A000FFF776FF502300087023000800BFFEE729
:1002B00010B5024800F07CF810BD000014010020C9
:1002C00001680A4BCAB2103AA3FB02321209084B6A
:1002D0009B5CC365032A04D96FF30901091D81657D
:1002E00002E06FF309018165806D7047ABAAAAAA8D
:1002F00048230008014600208A6A8B69002B0FD032
:10030000B3F5005F1DD08AB3012A30D0022A2ED067
:10031000032A04D1C96A11F0807F00D00120704700
:100320001AB1012A07D0022AF9D1C96A11F0807FD7
:10033000F5D001207047C96AB1F1C07FFAD1012020
:1003400070475AB1012A0BD0022A07D0032AF7D1ED
:10035000C96AB1F1C07FF3D1012070470120704715
:10036000C96A11F0807FFAD001207047FFE70120B1
:10037000704710B4D0F800C0DCF8004024F48024AA
:10038000CCF80040D0F800C0CCF804308368402B93
:1003900005D0036899600068C26010BC70470368AC
:1003A0009A600068C16010BC7047704770470000D9
:1003B0002DE9F84304464FF00008CDF80080764858
:1003C0004FF416510068B0FBF1F7A56D2E6894F854
:1003D0005C00082101FA00F0304211D02068026868
:1003E00012F0040F0CD0026822F00402026094F8AC
:1003F0005C0001FA00F0A860606D40F001006065EB
:1004000094F85C004FF0010909FA00F0304209D07D
:100410002168496911F0800F04D0A860606D40F038
:100420000200606594F85C1004208840304209D0D6
:100430002168096811F0020F04D0A860606D40F0D7
:100440000400606594F85C1010208840304224D08D
:100450002168096811F0080F1FD0A86020680168A2
:1004600011F4802F0DD0006810F4002F04D0A16C7F
:1004700099B12046884710E0216C71B12046884729
:100480000BE0016811F4807F03D1016821F00801BD
:100490000160216C09B12046884794F85C10202047
:1004A0008840304251D02168096811F0100F4CD0BB
:1004B000A86094F8350005280DD02068016811F473
:1004C000802F32D0006810F4002F29D0E16B59B38F
:1004D0002046884739E02068016821F01601016054
:1004E0002068416921F080014161206C08B9A06C4D
:1004F00020B12068016821F00801016094F85C00D7
:100500003F2101FA00F0A86084F8359084F8348027
:10051000216D00293ED001B02046BDE8F0430847D8
:10052000616C09B1204688470FE0016811F4807FB3
:1005300007D1016821F01001016084F8359084F83A
:100540003480E16B09B120468847606D002821D0D6
:10055000606D10F0010F15D0052084F8350020687B
:10056000016821F0010101600098401C0090B84230
:1005700004D82068006810F0010FF5D184F8359098
:1005800084F83480E16C002904D001B02046BDE835
:10059000F0430847BDE8F883040000202DE9F0414E
:1005A000044600F0D3F90546DCB1022084F835009A
:1005B000002684F834602068016821F001010160A0
:1005C0002068006810F0010F13D000F0BFF9401B45
:1005D000052809D920206065032084F83500BDE88E
:1005E000F0810120BDE8F0812068006810F0010F63
:1005F000EBD121680868234A1040A3686268D4F8E8
:1006000010C01A43E36843EA0C031A4363691A43B0
:10061000A3691A43E3691A43236A1A431043626ABF
:10062000042A03D1236BE26A1A431043086020684E
:10063000406920F00701606A40EA010501270428AB
:100640000ED1A06A0543E06A50B12046FFF752FE82
:1006500030B14020606584F835700120BDE8F0813C
:10066000206845612046FFF72BFE94F85C103F227E
:1006700002FA01F18160666584F835700020BDE8FA
:10068000F08100003F8010F070B504460025A66D93
:1006900094F8340001280DD0012084F8340094F837
:1006A00035C00020BCF1010F06D084F834000225CB
:1006B000284670BD022070BD4FF0020C84F835C092
:1006C00060652046FFF755FE94F85C003F2101FA73
:1006D00000F0B0602068016841F016010160206CF4
:1006E00020B12068016841F00801016020680168BC
:1006F00041F001010160DBE770B5044600F026F926
:100700000546B4F1FF3F02D004480078044400F0ED
:100710001DF9401BA042FAD370BD00000800002064
:100720002DE9F84F0022DFF818A2DFF810924FF001
:10073000010E03274FF00F08AAF1040B0EFA02FC7A
:100740000B6803EA0C0363457DD10C7904F00304C4
:10075000012C01D0022C14D18568540007FA04F64C
:10076000B543CE6806FA04F42C438460446824EA56
:100770000C0C0C79C4F30014944044EA0C0CC0F83F
:1007800004C0D1F804C037EA0C0C0CD0C4684FEA9E
:10079000420C07FA0CF5AC438D6805FA0CFC4CEAE8
:1007A000040CC0F80CC091F804C00CF0030CBCF1B0
:1007B000020F12D14FEAD20C00EB8C04256A4FEAEB
:1007C000427C4FEADC6C08FA0CF6B5430E6906FA77
:1007D0000CFC4CEA050CC4F820C004684FEA420C3B
:1007E00007FA0CF5AC430D7905F0030505FA0CFC8E
:1007F0004CEA040CC0F800C0D1F804C01CF4403F1F
:100800007DD0D9F800C04CF4804CC9F800C0D9F8AC
:1008100000C00CF4804CCDF800C022F0030C0CF1A9
:10082000804505F59835D5F808C89407240F08FACF
:1008300004F62CEA0606A0F1804CBCF5003C64D01E
:10084000A0F1804C00E05AE0BCF5013C60D0A0F182
:10085000804CBCF5023C5ED0A0F1804CBCF5033C62
:100860005CD0A0F1804CBCF5043C5AD0A0F1804C87
:10087000BCF5053C58D0A0F1804CBCF5063C56D0E8
:10088000A0F1804CBCF5073C54D04FF0080C0CFA9A
:1008900004FC4CEA060CC5F808C8DAF800C02CEADB
:1008A000030C4C6814F4801F01D04CEA030CCAF806
:1008B00000C0244CD4F800C02CEA030C4D6815F499
:1008C000001F01D04CEA030CC4F800C0DBF800C0E4
:1008D0002CEA030C4C6814F4003F01D04CEA030CE2
:1008E000CBF800C0184CD4F800C02CEA030C4D68BB
:1008F00015F4803F01D04CEA030CC4F800C0521C30
:10090000102AFFF41BAFBDE8F88F4FF0000CBEE7D4
:100910004FF0010CBBE74FF0020CB8E74FF0030CAF
:10092000B5E74FF0040CB2E74FF0050CAFE74FF01E
:10093000060CACE74FF0070CA9E700004438024072
:10094000083C01400C3C0140003C014001488068EB
:1009500070470000080000200248816802781144B6
:10096000816070470800002010B50B48016841F411
:1009700000710160016841F480610160016841F427
:1009800080710160032000F091F8002000F006F86B
:1009900000F026F8002010BD003C024070B504466F
:1009A0000D4D4FF47A712878B1FBF0F00B490968CE
:1009B000B1FBF0F000F0EAFB08B1012070BD102C93
:1009C00007D200222146501E00F03CF86C60002047
:1009D00070BD012070BD0000080000200400002050
:1009E00008B500BF002000900E48006840F4804029
:1009F0000C4908600846006800F48040009000BF81
:100A000000BF00BF00200090081F006840F0805029
:100A1000091F08600846006800F08050009000BF81
:100A200000BF08BD4438024000280ADB00F01F0167
:100A3000012202FA01F14009800000F1E020C0F833
:100A40000011704710B4184B1B68C3F30223C3F1A5
:100A5000070CBCF1040F01D94FF0040C1C1D072C2E
:100A600001D2002300E0DB1E012404FA0CFCACF1EF
:100A7000010C0CEA0101994004FA03F35B1E1A40D1
:100A80001143002806DB00F1E020090180F8001482
:100A900010BC704700F00F0000F1E020090180F861
:100AA000141D10BC704700000CED00E000F00700C2
:100AB000064A11684FF6FF03194041EA002040F052
:100AC000FD7040F080601060704700000CED00E0A9
:100AD0002DE9F04704460D46002C13D0DFF8549161
:100AE000D9F80000EFB200F00700A8420DD289F853
:100AF0000070D9F8000000F00700A84205D00120DE
:100B0000BDE8F0870120BDE8F08720684A4E10F06C
:100B1000020F14D010F0040F03D0306840F4E050FE
:100B20003060207810F0080F03D0306840F4604047
:100B300030603068A16820F0F00008433060207811
:100B400010F0010F3ED060683C49012808D002280F
:100B50000DD003280BD0096811F0020F28D00AE04D
:100B6000096811F4003F06D10120BDE8F08709684B
:100B700011F0007F19D0316821F003010843306083
:100B8000FFF7E4FE80463068616800F00C00B0EBCF
:100B9000810F17D041F2883AFFF7D8FEA0EB08008A
:100BA000504508D90320BDE8F0870120BDE8F08753
:100BB0000120BDE8F0873068616800F00C00B0EB00
:100BC000810FE9D1D9F8000000F00700A8420AD946
:100BD00089F80070D9F8000000F00700A84202D0A0
:100BE0000120BDE8F087207810F0040F05D03068B0
:100BF000E16820F4E05008433060207810F0080FDE
:100C000006D03068216920F4604040EAC1003060BD
:100C100000F042F831680A4AC1F30311515CC84040
:100C20000849086008480068FFF7B8FE0020BDE8E2
:100C3000F0870000003C02400838024000380240C3
:100C400030230008040000200C0000200148006848
:100C5000704700000400002000B5FFF7F7FF0449CB
:100C60000968044AC1F38221515CC84000BD0000FC
:100C7000083802404023000800B5FFF7E7FF0449A9
:100C80000968044AC1F34231515CC84000BD00000C
:100C9000083802404023000810B51748006810F0DB
:100CA0000C01164816D0164B042912D0082911D170
:100CB000144C216801F03F02216811F4800F0AD022
:100CC0002068C0F38810A0FB03010023FFF77AFA25
:100CD00009E0184610BD21680023C1F38811A1FB6B
:100CE0000001FFF76FFA2168C1F30141491C490077
:100CF000B0FBF1F010BD0000083802400024F40001
:100D0000001BB700043802402DE9F84F0446002CC0
:100D100012D02078FB4E10F0010FA6F1040563D02D
:100D2000301D016801F00C0104290CD0006800F0AE
:100D30000C00082803D010E00120BDE8F88F3068CF
:100D400010F4800F09D0286810F4003F4CD0606880
:100D5000002849D10120BDE8F88F6068B0F5803FD8
:100D600014D0B0F5A02F16D0286820F48030286069
:100D7000286820F480202860606810B3FFF7E6FD43
:100D80000746286810F4003F0ED02DE0286840F494
:100D900080302860F0E7286840F4802028602868C8
:100DA00040F480302860E7E7FFF7D0FDC01B6428DF
:100DB00002D90320BDE8F88F286810F4003FF3D073
:100DC00012E0FFF7C3FD0746286810F4003F0BD080
:100DD000FFF7BCFDC01B642802D90320BDE8F88FD3
:100DE000286810F4003FF3D12078C74F10F0020FAD
:100DF0004FF0000957D0C548016811F00C0F14D00E
:100E0000006800F00C00082803D1306810F4800F4F
:100E10000BD0E06880B301203860FFF797FD804673
:100E2000286810F0020F12D01EE0286810F0020FA0
:100E300005D0E068012802D00120BDE8F88F2868BD
:100E4000216920F0F80040EAC10028602BE0FFF79C
:100E50007DFDA0EB0800022802D90320BDE8F88F31
:100E6000286810F0020FF2D02868216920F0F800FD
:100E700040EAC100286016E0FFE7C7F80090FFF7DE
:100E800065FD8046286810F0020F0CD0FFF75EFD6C
:100E9000A0EB0800022802D90320BDE8F88F2868DB
:100EA00010F0020FF2D1207810F0080F35D09848DA
:100EB000DFF860A26169C1B101210160FFF746FD61
:100EC0008046DAF8000010F0020F26D1FFF73EFD51
:100ED000A0EB0800022802D90320BDE8F88FDAF859
:100EE000000010F0020FF1D017E0C0F80090FFF7FB
:100EF0002DFD8046DAF8000010F0020F0DD0FFF74C
:100F000025FDA0EB0800022802D90320BDE8F88FD8
:100F1000DAF8000010F0020FF1D1207810F0040F81
:100F200071D04FF000087C48006810F0805F0AD153
:100F30007948016841F080510160006800F08050FC
:100F400000904FF00108DFF8D4B1DBF8000010F496
:100F5000807F1BD1DBF8000040F48070CBF80000EC
:100F6000FFF7F4FC8246DBF8000010F4807F0DD11F
:100F7000FFF7ECFCA0EB0A00022802D90320BDE831
:100F8000F88FDBF8000010F4807FF1D0A068DFF864
:100F900090B1012818D005281DD0DBF8000020F002
:100FA0000100CBF80000DBF8000020F00400CBF8D3
:100FB0000000A06840B3FFF7C9FC8246DBF80000E0
:100FC00010F0020F14D03EE0DBF8000040F001000A
:100FD000CBF80000EDE7DBF8000040F00400CBF8B0
:100FE0000000DBF8000040F00100CBF80000E0E773
:100FF000FFF7ACFCA0EB0A0141F28830814204D932
:101000000320BDE8F88F26E005E0DBF8000010F0D3
:10101000020FEDD017E0FFF799FC8246DBF80000E5
:1010200010F0020F0FD0FFF791FCA0EB0A0141F284
:101030008830814202D90320BDE8F88FDBF8000038
:1010400010F0020FEFD1B8F1010F04D1324801685E
:1010500021F080510160A069F0B32C4909684FF07C
:10106000FF3801F00C01082966D0022810D0C7F81B
:101070006090FFF76BFC0446286810F0007F2BD0CF
:10108000FFF764FC001B022851D90320BDE8F88F4C
:10109000C7F86090FFF75AFC8146286810F0007F7F
:1010A0000CD0FFF753FCA0EB0900022802D9032063
:1010B000BDE8F88F286810F0007FF2D1216AE0695E
:1010C000A26A0843616A08EB5202890141EA0241BF
:1010D000084394F82C1000E055E040EA01603060CD
:1010E00001203866FFF732FC0446286810F0007FC4
:1010F00049D1FFF72BFC001B022813D90320BDE8C0
:10110000F88F0000043802400000474208380240CF
:10111000800E474274380240403802400070004060
:1011200070380240286810F0007FE2D02BE0286879
:1011300010F0007FA4D126E0012822D03068E269B7
:1011400000F4800191421AD1226A00F03F019142DD
:1011500015D147F6C071626A0140B1EB821F0ED112
:10116000A26A00F4403108EB5202B1EB024F06D103
:1011700094F82C1000F07060B0EB016F03D00120E8
:10118000BDE70120BBE70020B9E70000401EB0F139
:10119000807F01D3012070474FF0E0214861044A6D
:1011A000F02010700020886107200861002070473F
:1011B00023ED00E090F83C20012A2CD0012280F899
:1011C0003C20CA680023D1F808C022F4407242EAE9
:1011D0000C02D1F804C022F4806242EA0C02D1F879
:1011E00000C022F4006242EA0C02D1F810C022F4DE
:1011F000805242EA0C02D1F814C022F4005242EAB2
:101200000C02C96922F4804211430268516480F8DB
:101210003C30002070470220704730B490F83C20EA
:10122000012A44D0012480F83C40022280F83D206D
:101230000268D2F804C093682CF0700C0D6845EA7F
:101240000C0CC2F804C00268A2F1804CBCF5803CD2
:1012500020D0B2F1804F1DD0A2F1804CBCF5806C43
:1012600018D0A2F1804CBCF5006C13D0A2F1804CD8
:10127000BCF5406C0ED0A2F1804CBCF5823C09D08C
:10128000A2F1804CBCF5A03C04D0A2F1804CBCF58E
:10129000C05C04D123F0800349681943916080F851
:1012A0003D40002180F83C1030BC0020704730BC2D
:1012B0000220704710B50446002C03D094F83D007E
:1012C00010B107E0012010BD002084F83C0020464A
:1012D00000F01EF8022084F83D00211D206800F077
:1012E000E7FC012084F8460084F83E0084F83F00C3
:1012F00084F8400084F8410084F8420084F84300F8
:1013000084F8440084F8450084F83D00002010BDB6
:1013100008B5144A016891420FD100BF0021009125
:101320001149096841F001010F4A1160114609682D
:1013300001F00101009100BF13E00C4A01689142E5
:101340000FD100BF002100910749096841F0020157
:10135000054A11601146096801F00201009100BFC1
:1013600000BF08BD000001404438024000040140B5
:1013700070B50446002594F83C00012818D00126D9
:1013800084F83C60022084F83D002068826822F0E6
:10139000770222F47F4282600868502839D00EDC40
:1013A000202854D006DC002851D0102811D14EE05E
:1013B000022070BD30284AD040280AD13DE0602884
:1013C00031D070280DD0B0F5805F03D0B0F5005F4C
:1013D00013D0012584F83D60002084F83C002846A5
:1013E00070BDCB684A688968206800F0CBFC206833
:1013F000816841F077018160ECE7CB684A688968D1
:10140000206800F0BFFC2068816841F48041816061
:10141000E0E7CA684968206800F0A4FD5021206810
:1014200000F0BBFCD6E7CA684968206800F0ADFD53
:101430006021206800F0B1FCCCE7CA6849682068E8
:1014400000F090FD4021206800F0A7FCC2E7226870
:101450000146104600F0A1FCBCE7000010B586B0C4
:101460000446142101A8FEF7E5FE324920688842AF
:101470001FD100BF002000902F48006840F01000EE
:101480002D4908600846006800F01000009000BF79
:1014900000BF4FF4D440019002200290012003903D
:1014A000022004900120059001A92448FFF738F993
:1014B0003EE02349206888423AD100BF00200090D6
:1014C0001D48006840F480701B49086008460068A9
:1014D00000F48070009000BF00BF00BF00200090AB
:1014E0000846006840F0040008600846006800F004
:1014F0000400009000BF00BFC020019002200290B5
:1015000001200390022004900320059001A90D48BA
:10151000FFF706F94020019002200290012003907D
:10152000022004900320059001A90748FFF7F8F86E
:1015300006B010BD000001403038024000100240EB
:1015400000040140002002400008024070B504463B
:101550000D46002694F83C0001280FD0012084F8A5
:101560003C006AB1042A1FD0082A32D00C2A44D089
:101570000126002084F83C00304670BD022070BD7A
:101580002946206800F012FC2068816941F00801BA
:1015900081612068816921F004018161206881698D
:1015A0002A6911438161E4E72946206800F036FC8E
:1015B0002068816941F4006181612068816921F4BA
:1015C00080618161206881692A6941EA0221816123
:1015D000CFE72946206800F05DFC2068C16941F032
:1015E0000801C1612068C16921F00401C16120685E
:1015F000C1692A691143C161BBE72946206800F02F
:1016000085FC2068C16941F40061C1612068C1693D
:1016100021F48061C1612068C1692A6941EA02211F
:10162000C161A6E710B50446002C03D094F83D0034
:1016300010B107E0012010BD002084F83C002046D6
:1016400000F01EF8022084F83D00211D206800F003
:101650002FFB012084F8460084F83E0084F83F0008
:1016600084F8400084F8410084F8420084F8430084
:1016700084F8440084F8450084F83D00002010BD43
:1016800070477047704770B50446002C04D094F83A
:101690004100002510B106E0012070BD84F84050E3
:1016A000204600F023F8242084F841002068C16817
:1016B00021F40051C160204600F02CFD2068016932
:1016C00021F4904101612068416921F02A014161C2
:1016D0002068C16841F40051C1606564202084F82D
:1016E000410084F842006563002070BD10B586B0EB
:1016F0000446142101A8FEF79DFD2C49206888426C
:1017000052D100BF002000902948006840F480209A
:10171000274908600846006800F48020009000BF58
:1017200000BF00BF0020009021481038006840F042
:1017300004001F49103908600846006800F00400E2
:10174000009000BF00BF4FF4406001900220029063
:1017500000200390032004900720059001A915485C
:10176000FEF7DEFF1448154908604FF0006048603E
:10177000002112488160C1604FF480610161002145
:10178000416181614FF48071C1614FF44031016268
:1017900000214162FEF702FF08B1FEF707FE00BF1D
:1017A0000648E063846300BF06B010BD00480040F7
:1017B0004038024000080240286002401401002026
:1017C00090F84230202B01D00220704721B11AB18D
:1017D0000023036300F01CBD0120704730490978E5
:1017E0002F4A527841EA0221C1F30A012D4A1180A1
:1017F0002B494978C9102A4A927841EA4211C1F32B
:101800000A01284A5180264989788911244AD278C8
:1018100041EA8201224A127941EA8221C1F30A0196
:10182000204A91801E49097949101D4A527941EA9E
:10183000C211C1F30A011B4AD18019494979091122
:101840008908117216494979C1F30111517214497D
:101850008979134AD27941EA0221124A5181104909
:10186000097A0F4A527A41EA02220E498A810C49CA
:10187000897A0B4AD27A41EA02220A49CA81084986
:101880000A7B08490A7406494A7B06494A74044996
:10189000897B034AD27B41EA0221024A5182704786
:1018A0002800002014000020704700BFFEE7000061
:1018B00008B500BF002000900A48006840F40010FE
:1018C000084908600846006800F40010009000BF56
:1018D00000BF002211460C20FFF7B4F80C20FFF7E0
:1018E000A3F808BD3038024008B500BF00200090C2
:1018F0002448006840F0010022490860084600685A
:1019000000F00100009000BF00BF00BF0020009069
:101910000846006840F0040008600846006800F0CF
:101920000400009000BF00BF00BF002000900846E8
:10193000006840F4807008600846006800F4807019
:10194000009000BF00BF00BF002000900846006864
:1019500040F0800008600846006800F080000090B9
:1019600000BF00BF00BF002000900846006840F0A4
:10197000100008600846006800F01000009000BFEA
:1019800000BF08BD3038024000B595B0002011906E
:101990001290139014900F9010901C2108A8FEF73D
:1019A00049FC20216846FEF745FC38483849086064
:1019B000A720486000213648816044F61F61C1605D
:1019C0000021016141618161FFF774FC08B1FEF7FC
:1019D000EDFC4FF48050119011A92D48FFF7C8FC81
:1019E00008B1FEF7E3FC2A48FFF71CFE08B1FEF73A
:1019F000DDFC00200F9010900FA92548FFF70DFC8B
:101A000008B1FEF7D3FC602008904FF4FA6009900B
:101A100000200A900B900C900D900E90002208A9C7
:101A20001B48FFF793FD08B1FEF7C0FC042208A98C
:101A30001748FFF78BFD08B1FEF7B8FC082208A98C
:101A40001348FFF783FD08B1FEF7B0FC0C2208A98C
:101A50000F48FFF77BFD08B1FEF7A8FC00200090BF
:101A600001900290039004904FF4005005900020E4
:101A7000079069460648FFF79DFB08B1FEF796FC04
:101A80000348FFF7EBFC15B000BD0000000001406B
:101A90003C00002000B595B00020119012901390EA
:101AA00014900F9010901C2108A8FEF7C3FB202172
:101AB0006846FEF7BFFB344834490860A7204860F9
:101AC00000213248816044F61F61C160002101613C
:101AD00041618161FFF7EEFB08B1FEF767FC4FF44F
:101AE0008050119011A92948FFF742FC08B1FEF778
:101AF0005DFC2648FFF796FD08B1FEF757FC002075
:101B00000F9010900FA92148FFF787FB08B1FEF74F
:101B10004DFC602008904FF4FA60099000200A9074
:101B20000B900C900D900E90002208A91748FFF71B
:101B30000DFD08B1FEF73AFC042208A91348FFF78F
:101B400005FD08B1FEF732FC082208A90F48FFF78F
:101B5000FDFC08B1FEF72AFC0020009001900290E5
:101B6000039004904FF400500590002007906946C0
:101B70000648FFF71FFB08B1FEF718FC0348FFF704
:101B80006DFC15B000BD0000000401408400002081
:101B900010B50C480C4908600C4848604FF480515F
:101BA000094881600021C1604FF4806101610C210E
:101BB000416100218161C161FFF765FD08B1FEF758
:101BC000F5FB10BD00480040CC000020A0860100BD
:101BD00000BFFEE7704710B5FEF7BEFE10BD000067
:101BE00000B593B0302107A8FEF724FB142102A80A
:101BF000FEF720FB00BF002001902448006840F061
:101C00008050224908600846006800F0805001902A
:101C100000BF00BF00BF002001901D48006840F4D5
:101C200080401B4908600846006800F4804001902D
:101C300000BF00BF012007900004089002200D9013
:101C400041050E9106210F91A821109102211191B9
:101C50000721129107A8FFF757F808B1FEF7A6FB76
:101C60000F20029002200390002004904FF4A05017
:101C700005904FF480500690052102A8FEF728FF3A
:101C800008B1FEF793FB13B000BD000040380240DE
:101C9000007000400548006840F470000349086087
:101CA0004FF00060014980390860704788ED00E01E
:101CB000F0B40268DFF8B8C02E4C2F4D2F4E304BD9
:101CC00060450AD0B0F1804F07D0A04205D0A842AD
:101CD00003D0B04201D0984203D122F070024F6885
:101CE0003A43604528D0B0F1804F25D0A04223D0A0
:101CF000A84221D0B0421FD098421DD0A0F180440C
:101D0000B4F5A03418D0A0F18044B4F5A23413D0B7
:101D1000A0F18044B4F5A4340ED0A0F18044B4F511
:101D2000C05409D0A0F18044B4F5E05404D0A0F12F
:101D30008044B4F5005403D122F44072CC682243AD
:101D40004C6922F0800222438C68C4620C68846271
:101D5000604501D0984201D109690163016841F0F1
:101D600004010160012141610260F0BC7047000084
:101D7000000001400004004000080040000C00404A
:101D800000040140D0F808C02CF47F4C42EA032242
:101D9000114341EA0C0181607047826822F07002B1
:101DA000114341F0070181607047000070B4026A7E
:101DB000036A23F0010303624368D0F818C02CF0D3
:101DC000700C2CF0030C0C6844EA0C0C22F002029C
:101DD0008C6822430F4C104DA04201D0A84205D17F
:101DE00022F00802CE68324322F00402A04201D061
:101DF000A84207D123F4807323F400734C69234372
:101E00008C6923434360C0F818C04968416302628B
:101E100070BC7047000001400004014070B4026AC9
:101E2000036A23F0100303624368D0F818C02CF44F
:101E3000E04C2CF4407C0C684CEA042C22F020028C
:101E40008C6842EA0412114C114DA04201D0A84204
:101E500006D122F08002CE6842EA061222F0400249
:101E6000A04201D0A84209D123F4806323F4006387
:101E70004C6943EA84038C6943EA84034360C0F8F5
:101E800018C049688163026270BC7047000001405D
:101E90000004014070B4026A036A23F48073036291
:101EA0004368D0F81CC02CF0700C2CF0030C0C68AC
:101EB00044EA0C0C22F400728C6842EA0422114CB1
:101EC000114DA04201D0A84206D122F40062CE6892
:101ED00042EA062222F48062A04201D0A84209D13F
:101EE00023F4805323F400534C6943EA04138C69B0
:101EF00043EA04134360C0F81CC04968C16302622E
:101F000070BC7047000001400004014010B4036A37
:101F1000026A22F4805202624268D0F81CC02CF49B
:101F2000E04C2CF4407C0C684CEA042C23F4005365
:101F30008C6843EA0433A0F18044B4F5803404D0C3
:101F4000A0F18044B4F5823404D122F480424C697B
:101F500042EA84124260C0F81CC04968016403620E
:101F600010BC7047036AD0F820C02CF0010CC0F8F8
:101F700020C0D0F818C02CF0F00C4CEA021223F06C
:101F80000A031943826101627047036AD0F820C0D6
:101F90002CF0100CC0F820C0D0F818C02CF4704CF5
:101FA0004CEA023223F0A00343EA0111826101628C
:101FB000704770B5846B20684069C0F3C01094F816
:101FC00041100025212904D118B1E584204600F0F4
:101FD00093F820684069C0F3801094F842102229D9
:101FE00004D118B1E585204600F05FF8606C40F040
:101FF000100060642046FFF745FB70BD10B5014638
:10200000886B096809684FF0000311F4807F32D1B2
:10201000C38501680C3151E8002F22F4807241E839
:10202000002CBCF1000FF4D10168143151E8002FED
:1020300022F0010241E8002CBCF1000FF4D101684C
:10204000143151E8002F22F0400241E8002CBCF18D
:10205000000FF4D1202180F84210016B01290AD130
:1020600001680C3151E8002F22F0100241E8002CE9
:10207000BCF1000FF4D14363016B012902D0FFF7DB
:10208000ADFB10BD818DFFF7FCFA10BD10B5806B64
:1020900001214163016B012902D0FFF705FC10BD4E
:1020A000818D4908FFF7EDFA10BD01680C3151E848
:1020B000002F22F4907241E80023002BF5D1016833
:1020C000143151E8002F22F0010241E80023002BD7
:1020D000F5D1016B012909D101680C3151E8002FBC
:1020E00022F0100241E80023002BF5D1202180F8D6
:1020F000421000210163704701680C3151E8002F44
:1021000022F0C00241E80023002BF5D1202180F805
:10211000411070472DE9F041044620680169E268EA
:1021200021F44051114301612169A068E26908432B
:102130006169114301432068C26822F4037222F4EA
:1021400014421143C16020684169A26921F44071C1
:10215000114341612068A0F18041B1F588312ED052
:10216000A0F18041B1F58A3129D0FEF775FD844692
:10217000E16900201927254D3226B1F5004F22D004
:102180006068830F8200ACFB0701FEF71BF8014675
:10219000A5FB002040097A42424301EB820106EB95
:1021A0000111A5FB0121490901F0F00202EB001029
:1021B00001F00F01084421688860BDE8F081FEF756
:1021C0005BFD8446D4E761684A1840EB0003ACFB32
:1021D0000701FDF7F7FF0346A5FB0010410918466C
:1021E0000A016FF01803594300EB810006EBC000B1
:1021F000A5FB0010400900F0F80102EB410100F0DE
:102200000700084421688860BDE8F0811F85EB5114
:1022100017B581B004461346029AA262A385002036
:102220006064222184F84210D4F83CC02149CCF8E3
:102230003C10D4F83CC02049CCF84010D4F83CC045
:102240001E49CCF84C10E16B08652068011DE06B5D
:10225000FEF71AFA38B110206064202084F842009A
:1022600004B0012010BD206801684068009020691A
:1022700048B120680C3050E8001F41F4807140E8FC
:102280000012002AF5D12068143050E8001F41F0F8
:10229000010140E80012002AF5D12068143050E80E
:1022A000001F41F0400140E80012002AF5D104B0BF
:1022B000002010BDFD1F00088D200008B31F00087E
:1022C00000BFFEE702E008C8121F08C1002AFAD1C9
:1022D00070477047002001E001C1121F002AFBD1A6
:1022E00070470000FEF740FBFFF77AFCFFF7FCFAAF
:1022F000FFF7DEFAFFF7CEFBFFF746FBFFF748FCE0
:10230000122207490748FFF75BFA08E006480088F1
:10231000A0F58060054908600A20FEF7EDF9F5E7B1
:1023200028000020CC000020140000200000002025
:102330000000000000000000010203040607080975
:10234000000000000102030400061016000610162B
:10235000702300080000002014000000C4220008C0
:10236000842300081400002064210000D422000807
:10237000000000000024F400010000001000000034
:042380000000000059
:040000050800018965
:00000001FF
